:102000007101E0507102E05071C0E0208E0064ADBB
:102010009FFFB8BD20508E0014AD9FFFB8C620BDF5
:1020200020F85C1F98B71F00C620BD212012108E1B
:102030001F00BD217212108E1F00BD213B12108E99
:102040001F10BD21F3108E1F20BD21A8127EE206B5
:102050008680BD20BD26294C28F83934168E00080C
:10206000F6E020581036892A047540E0207180E09F
:102070002012727FE0201248301F26E43516203DE2
:1020800072BFE0207180E020127140E020123934EC
:10209000141F898E00084F7140E020487180E020B5
:1020A000127B04E02027028A01727FE02012301F99
:1020B00026E95D3514270672BFE02020047140E058
:1020C000207180E020127B04E0203401727FE02048
:1020D00012358171C0E020127B04E020271272BF0C
:1020E000E02012727FE02012BD205B2606860039B8
:1020F000860239860139C60F1186D01FE884FEBDDD
:1021000020D326681F98BD205B26611FE88A01BD89
:1021100020D326588600BD208F1F8920474FC60F29
:102120001186D01E8E84FE8DAA26411F98BD205B8D
:10213000263A1FE8BD205B263327295F8E000F114A
:1021400086D034201FE884FE8D89261E1F98BD206E
:102150005B26173000270BA6A0BD205B260C301F86
:1021600026F53520BD20808600393520BD208086AB
:1021700001395F8E000F1186D034201FE884FEBD28
:1021800020D326E61F98BD205B26DF1FE88A01BD0D
:1021900020D326D6300027CA8601301F26014FBD26
:1021A000208FA7A01F8920ECBD20502936BD2172A9
:1021B0002631A6268D30ED288620E6255889008D0B
:1021C00025ED26A625C41F8D1DEDA4A6248D17ED93
:1021D00023862FA722A725104FED2AA62F2A0361B9
:1021E0002A2A391A02391F8944444444C40F108AE8
:1021F000303039BD2050293ABD21722635A6A48D34
:10220000E5ED26A6218DDFED23A6221F8985402737
:102210000985202705841F8B1219843F8DC8ED2066
:10222000863AA722A725104FED28A62F2A03612A58
:0522300028391A0239F3
:00000001FF