:1010000010CE0F80CE0F8030C8781F1BBD1271101C
:101010005F1097F81097FA201A81082720817F2700
:101020001C81182709811B27055CC1782512865C65
:10103000BD12D9BD12EB8621BD12D9C6015A2BF3C0
:10104000BD12A1A7C5BD12D9810D26CD104F5A974B
:10105000FC5CA6C5810D27DB812E27F323F38A8054
:1010600081BA27EB81CD1027D19F81CE1027D19651
:1010700081D11027D18D81D2272C81D8272B105FC9
:10108000D7FDA6C58830810923088A208B8981F97C
:10109000231C840F1E0610481048104810481035B5
:1010A000E91E065C20DC6ED878BD11252085D1FDB7
:1010B0001027FF7A0FFD0DFC2A099EFA11E7809F89
:1010C000FA208F264D1097FA1097F84F263B96FD81
:1010D000270EBD12A181181027FF58812027014F2C
:1010E00097FDBD12B48120270C81132708811810A9
:1010F00027FF4096FD97FDBD12EB96F8BD130896AD
:10110000F9BD1308863ABD12D9BD12F7A6D878BD2D
:1011100013089EF81037611027FF3730019FF896AB
:10112000F9840720A7BD12260D0A48657820446F70
:10113000776E6C6F616400BD12EB8D202606BD12C8
:10114000192E20F62A0CBD12260D0A455252FF1AFE
:101150000239BD12260D0A4F4BFF4F39BD129C813B
:1011600003274E813A10270071815326EFBD129C50
:10117000813027E8813527E48139273881312631CC
:10118000BD1243292C1F8E80031F8FBD12432921BE
:101190001F8910308EBD124329171E891F01103080
:1011A0009E8D24290CBD1243290710308E114C2727
:1011B0001486FF39BD124329F81F8FBD1243115AFF
:1011C00026F98601394F39115D270EBD12432909D1
:1011D000A78010308E115A26EE39BD124329D21F36
:1011E0008E1F8FBD124329C91F8910308EBD124337
:1011F00029BF1E891F0110309E115CBD124329B109
:10120000810127B710308E115A8DBC29A4BD12431D
:10121000299F10308E27AE20983412AE63A680BD71
:1012200012D9AF6335923410AE628D04AF6235903F
:101230003402A680270B81FF102700B1BD12D920F0
:10124000F135828D11290E4848484834028D07290E
:1012500002AAE4326139BD12A180308109230A80DB
:1012600007810A2507810F2203840F398B371A0261
:10127000393432108EE0128E128CA6A4A68081FF23
:101280002708A7A4A680A7A420F235B209800900E8
:10129000044403C105EA0B050F00FFFF8D1E29FC66
:1012A000397101E0508D1528067501E05020F67166
:1012B00001E050393420108E000220063420108EB8
:1012C00000001A02313F270FB6E012B6E012840187
:1012D00027F0B6E0138A0035A03402B6E012B6E07B
:1012E00012840427F63502B7E013393402860D8DD7
:1012F000E8860A8DE43582340286208DDC35828DC5
:10130000071E988D031E98393402444444448D02CC
:1013100035023402840F8B30813923028B078DB95B
:02132000358214
:00000001FF