:101000007E10034FB71FFF8E1142BDE6A68E1F80D4
:1010100011C680BD122D102900ED8E11B3BDE6A6BC
:101020008E1F90108E20004FA700A701A702A703D4
:10103000BDE676BDE659BD13D9102900D4BD111BFC
:101040008E11B3BDE6A68E1F90108E20004FA70014
:10105000A701A7024CA703BDE676BDE659BD13D98B
:10106000102900ADBD111B8E11B3BDE6A68E1F90D9
:10107000108E20004FA700A701A702A703BDE676A8
:10108000BDE659BD13D910290087BD111B8E11C2B1
:10109000BDE6A68E2000EC84104CED848E11DDBDE3
:1010A000E6A68E1FA0108E20004FA700A701A70262
:1010B000A703BDE676BDE659BD1419102900528E6E
:1010C00011C2BDE6A68E2000EC84104CED848E117A
:1010D000DDBDE6A68E1FA0108E20004FA700A70141
:1010E000A7024CA703BDE676BDE659BD1419102929
:1010F000001F8E1160BDE6A6BDE60AB71FFFBDE664
:1011000047BDE6597E101A8E117CBDE6A63F7EE2F1
:10111000038E119CBDE6A63F7EE2038E2000114F98
:101120001FE8850F2610BDE6591F10BDE66D863AF3
:10113000BDE647BDE665A680BDE676114A26E17E9E
:10114000E6593D3D3D204844363330392053442054
:10115000636172642074657374203D3D3D0A0D0027
:1011600050726573732061206B657920746F2072F3
:10117000657065617420522F570A0D004572726FB9
:10118000723A206661696C656420746F20696E69CB
:101190007420534420636172640A0D00492F4F206C
:1011A0006572726F72202D20736563746F722030C8
:1011B0000A0D0052656164696E6720626C6F636B33
:1011C0002000496E6372656D656E74696E6720629A
:1011D0006C6F636B2062797465730A0D00577269D6
:1011E00074696E6720626C6F636B20000A0D0040AB
:1011F000000000009548000001AA87694000000037
:10120000777700000000657A00000000FD34167159
:1012100010E0507B80E0501A0221107120E050C68F
:101220000ABDE9715A26FA72DFE05035963446114C
:101230005D270EBDE69C0D0A53443A5265736574F2
:1012400000114F8DC8102900DEC60B5A102700D799
:10125000115D270DBDE69C0D0A53443A434D4430C1
:1012600000CE11EF11A6C4BD13617110E050BD1383
:10127000A281011026FFD4115D270DBDE69C0D0A49
:1012800053443A434D443800CE11F511A6C4BD1362
:10129000617110E050BD1389BD13B8102B0088BDDB
:1012A000E971BDE971BDE971BDE971C60B5A2777D6
:1012B000115D270EBDE69C0D0A53443A434D44355B
:1012C0003500CE120111A6C4BD13617110E050BDEE
:1012D00013A2115D270EBDE69C0D0A53443A434DFF
:1012E00044343100CE11FB11A6C4BD13617110E06E
:1012F00050BD13A2840126B5115D270EBDE69C0DDD
:101300000A53443A434D44353800CE120711A6C45F
:10131000BD13617110E050BD1389BD13B82B08A631
:101320000184C081C0271C115D270DBDE69C0D0AFC
:1013300053443A4641494CFF7110E050BDE9711ADF
:101340000235C6115D2710BDE69C0D0A53443A5381
:10135000554343455353FF7110E050BDE9715F356C
:10136000C634447110E050BDE97172EFE050BDE940
:1013700071C606A6C0BDE9615A26F8C60ABDE97164
:101380004D2A035A26F74D35C4A784BDE971A7013C
:10139000BDE971A702BDE971A703BDE971A704A664
:1013A00084393402115D2A0DBDE69C2E2E2E523159
:1013B0003D00BDE676A6E039115D2A1CBDE69C2EF7
:1013C0002E2E523D003414C605A680BDE676BDE63D
:1013D000655A26F53514A684391038344010EC844B
:1013E00010ED0110396F058651A7841F13BD1361DD
:1013F0003540261EBDE9712A1981FE26F78E0200AE
:10140000BDE979BDE9711F89BDE9711E897110E0DF
:1014100050397110E0501A02391038344010EC8401
:1014200010ED0110396F058658A7841F13BD136195
:1014300035402627BDE971BDE97186FEBDE9618EA3
:101440000200BDE989BDE971BDE971BDE9718D1287
:10145000841F810526057110E050397110E0501A83
:1014600002393432108E61A88E0002BDE73B313F55
:0B1470002707BDE9714326F04335B2A9
:00000001FF