:10C0000087CD2000001EB182B8025245C7003D0016
:10C0100000009B535441CB003F000000B900465044
:10C020004FB9434F5059524947485420284329207B
:10C030004D4F544F524F4C4120313938322002205D
:10C04000083477308D002220063477308D0044107C
:10C05000AE69E6A4C43FC1262F02C628EC85308B0A
:10C06000A6A010AF69316D6E840080008000800052
:10C0700080008000C800C800CB00CB007B007B01A3
:10C08000040100015501A9007B007B0193013F01E0
:10C090002800AF019A019A019A019A019A01F901C7
:10C0A000F901F901F901D901D9027802870349039D
:10C0B000D701D901D903B002EE02BB008531693343
:10C0C000A5ECA4EDC4EFA4357710EEE4395032E5C9
:10C0D0003432306550CB0531E5C60DA6A0A7805A95
:10C0E00026F935B2170657201017065210AEC83B76
:10C0F00030C8255F1703B2241CC60110AEC8393002
:10C10000C8181703A4240E1712011705F42406AE4D
:10C11000C83717050C17066635F710AEC83B30C890
:10C12000255F2009C60110AEC83930C81817037939
:10C13000395F2002C601AE6317060334048DDB2489
:0CC14000268DE124221711C31705B62438
:10E200001A5010CEDEF7BDE254108EE33E8EDE874C
:10E21000C60810AF815A26FACCDED7B7DF0BF7DF7E
:10E220000A104FFDDF1BB7DF15B7DF14B7DF13B7D9
:10E23000DF12B7DF16B7DF18FDDF10FDDF0EFDDFE1
:10E240000CFDDF19B7DF0886D0B7DF1786FAB7DF16
:10E250001D7EE4AA7230E0507101E05072FDE04092
:10E26000BDE2ECBDE2F78690B7DFA0CCDFA1FDDF19
:10E27000C13934348EE000F6DFA0C47F3A108E003E
:10E2800000313F270EE684E684C40127F4A6011C72
:10E29000FE35B41A0135B434348EE01220DF343444
:10E2A0008EE012108E000220D834348EE0128DCD14
:10E2B00024F93934148EE000F6DFA0C47F3AE684F6
:10E2C000E684C40427F8A701359434148EE01220A4
:10E2D000ED11800000000000013F36333039206D21
:10E2E0006F6E69746F722056312E30003432108E8A
:10E2F000E0128EE31220093432108EE0108EE328F3
:10E30000A6A4A68081FF2708A7A4A680A7A420F220
:10E3100035B209800900044403C105EA0B050C0469
:10E320000D000E010F00FFFF09400900048403C126
:10E3300005EA0B050C040D000E010F00FFFFB7DF0F
:10E34000083502B7DF173502B7DF153502B7DF141E
:10E35000BDE6392602103911B7DF1311F7DF121F9E
:10E3600070B7DF1AF7DF19B6DF188403113C4027B6
:10E37000028A40113C8027028A80B7DF183502B735
:10E38000DF163506B7DF11F7DF103506B7DF0FF7F9
:10E39000DF0E3506B7DF0DF7DF0C3510B6DF08816D
:10E3A000012602301F1F10B7DF1CF7DF1B7EE53D83
:10E3B00010CEDEF78EDF1DB6DFA02A118802B7DF90
:10E3C000A0840272FDE050BAE050B7E050BDE272A6
:10E3D00025DE81F725DAA780BDE27225D381802270
:10E3E000CFA7808100270C1F89BDE27225C2A780BC
:10E3F0005A26F6BDE27225B83402BDE5BAABE02676
:10E40000AF727FDFA08EDF1DA680E68081FF2742EE
:10E4100081FE272681FD272581FC272481FB2723D8
:10E4200081FA272281F9272181F8272081F7271FE8
:10E4300086F0B7DF1D86017EE5987EE4677EE47E88
:10E440007EE4AA7EE4BF7EE4D17EE5517EE57F7E58
:10E45000E58A8EE2D1108EDF1EC61BE7A0A680A73C
:10E46000A05A26F97EE5A2A602E6011F02E603F7FE
:10E47000DF1E2707A6A0A7805A26F97EE5A2A68060
:10E48000E680A6801F02F6DF1EC00327143434A6E0
:10E4900080A7A05A26F93534A680A1A026075A26BF
:10E4A000F78600200286017EE598108EDF08C615EB
:10E4B0008EDF1EE780A6A0A7805A26F97EE5A25D22
:10E4C000270B108EDF08A680A7A05A26F94F7EE5FD
:10E4D00098B6DF0BF6DF0A1F04CC113DFDDF3BB61B
:10E4E000DF18B7DF3D8639B7DF3EBDDF3BB6DF1A49
:10E4F000F6DF191F07B6DF1CF6DF1B3406B6DF0D8B
:10E50000F6DF0C3406B6DF0FF6DF0E3406B6DF1189
:10E51000F6DF103406B6DF16340211B6DF1311F63B
:10E52000DF12B6DF18850127021038B6DF14340277
:10E53000B6DF153402B6DF178A8034023B1F40B7BE
:10E54000DF0BF7DF0A10CEDEF78600B7DF097EE4C7
:10E55000AACEDF1E8600A7C0545427203404A6028A
:10E56000E6011F02A6A4E603E7A4E1A43504260CF5
:10E57000A7C07CDF1E3004F1DF1E26E07EE5A2A6E8
:10E5800001E6841F02A6A47EE598A601E6841F0288
:10E59000A602A7A44F7EE598B7DF1F8601B7DF1E4E
:10E5A0002000BDE5BA40A7848EDF1DE601CB03A69F
:10E5B00080BDE2B35A26F87EE3B08EDF1DE601CBC4
:10E5C000028600AB805A26FB398607BEDE876E8442
:10E5D0008606BEDE896E848605BEDE8B6E84B7DF5E
:10E5E000153502858026297FDF05B6DF1884FDB743
:10E5F000DF18347810B7DF12BDE639340110B6DF0A
:10E60000123501260210383404F6DF1534048A80EE
:10E610007DDF052608F6DF18CA02F7DF1834028608
:10E6200004BEDE8D6E848603BEDE8F6E848602BEDF
:10E63000DE936E8486017EE33E10388EDEF78680A0
:10E64000A780C6096F805A26FBCCE65DED81ED817F
:10E6500010FFDF0610CEDEF7108612343B10FEDF0F
:10E6600006105D103939B6E0038D1C4FB7E0038DFD
:10E6700016B6E0038D114FB7E0038D0B8601B7E0AE
:10E68000038D044FB7E00312121239F6E003843F02
:10E69000B7E003F6E003393404F6E003843FB7E063
:10E6A000033504F7E003398D1324104848484834F3
:10E6B000028D092404AAE41A01326139BDE2A9805D
:10E6C000308109230A8007810A2507810F22031A56
:10E6D00001398B371CFE398D021F983402444444A3
:10E6E000448D023502840F8B30813923028B077EE3
:10E6F000E2CA860DBDE2CA860A20F43410AE628DED
:10E7000004AF623590A680270981FF27E5BDE2CAE4
:10E7100020F3394FBDE7A126094C26F871C0E0204F
:10E720004A3972BFE020127180E020127B08E0209D
:10E7300027F48D047140E0201212121212123934A3
:10E7400006C6087140E0204D2B0472BFE020127114
:10E7500080E020127B08E02027F48DDC727FE0202F
:10E760008DD6485A26DD35067B04E0203934241F37
:10E7700089108E00084F127180E020127B08E02083
:10E7800027F48DB47B04E02027028A80727FE0208A
:10E790008DA6313F26E05D3524270672BFE020209C
:10E7A000047140E020127180E020127B08E02027F5
:10E7B000F48D857B04E020727FE0207EE73871C015
:10E7C000E020BDE7387B04E020261972BFE020BDC1
:10E7D000E738727FE020BDE738BDE73F26038600BB
:10E7E0003986013986023986D05FBEDFC1108E00BE
:10E7F00020341084FE8DC726171F98BDE73F2610D2
:10E8000031A4270BA680BDE73F2605313F26F54FF3
:10E81000BDE7224D35103984FE8DA3260F1F98BD0C
:10E82000E73F26081FE8BDE73F26014FBDE7224D21
:10E830003986D05FBEDFC1108E0020341084FEBD4B
:10E84000E7BE26261E98BDE73F261F1F988A01BDFA
:10E85000E7BE261631A427118601313F2602860025
:10E86000BDE76DA7801F8920EB4FBDE7224D351016
:10E870003984FEBDE7BE26181E98BDE73F26111F4E
:10E88000988A01BDE7BE26088600BDE76D1F894F47
:10E89000BDE7224D39BDE6F28D0A2407862EBDE282
:10E8A000CA20F539BDE2A9813A1027007C815326A0
:10E8B000F3BDE2A9813027DD813527D98139274F82
:10E8C00081312646BDE6A72441B7DEF78003B7DED7
:10E8D000F8BDE6A724341F89BBDEF7B7DEF7BDE637
:10E8E000A724271E891F01FBDEF7F7DEF7BDE6A789
:10E8F0002418A780BBDEF7B7DEF77ADEF826EEBD78
:10E90000E6A72406BBDEF74C271A1A041CFE39BD05
:10E91000E6A724F6B7DEF8BDE6A77ADEF826F81CEF
:10E92000FB1CFE391CFB1A0139BDE6A724DCB7DE4F
:10E93000F7B7DEF8810027E7BDE6A724CD1F89BB26
:10E94000DEF7B7DEF7BDE6A724C01E891F01FBDE98
:10E95000F7F7DEF7BDE6A724B1BBDEF7B7DEF7BDFC
:10E96000E6A724A6A780BBDEF7B7DEF77ADEF82697
:10E97000EEBDE6A72494BBDEF727A97EE90ABDE237
:10E980005410CEDED7200D81DF2716819B2705305E
:10E99000015C2A1286DCBDEA19BDE6F28EDE01C6F4
:10E9A00001301F5A2BF3BDE2A98A80A7848D6A81AA
:10E9B0008D26D41086DEFF4F48B7DE86115C1F61BE
:10E9C000A684818D27D381AE27EE23F081BA27E973
:10E9D00081D2274D7FDE857FDE841F121F61A684D2
:10E9E00088B0810923068B8981F923144848484857
:10E9F000C6044879DE8579DE845A26F6115C20DC6F
:10EA0000103721278F7DDE862A1BBEDE82B6DE858B
:10EA1000A7843001BFDE8220A5847FBDE2CA8A8040
:10EA2000396E9FDE80262BBEDE84BFDE82BFDE8095
:10EA30004F2613BDE6F2B6DE80BDE6DBB6DE81BD55
:10EA4000E6DB86BA8DD386A08DCFBEDE80A684BDE0
:10EA5000E6DB7FDE86BEDE80BCDE8427BA3001BF07
:09EA6000DE80B6DE81840720C8C7
:10FFC000E97EE666E68BE697E2ECE2CAE2A9E29E0B
:10FFD000E297E6BCE6A7E6D7E6DBE6E5E6F2E6FB77
:10FFE000E705E713E871E817E83BE7F1E831E7E7F1
:10FFF000E5C9E5D0E5D7E5DEE626E634E62DE20004
:00000001FF