S01F00005B6C77746F6F6C7320342E313072635D206D6F6E746573742E61736DC3
S1130000BD0130BD01810A0D4D6F76696E67206DAB
S11300106F6E69746F7220746F2052414D008EC1EF
S113002000CE410010861F00113813BD01810A0D56
S11300304D6F6E74696F722072656C6F6361746565
S11300406420746F2052414D00BD01810A0D747506
S1130050726E696E67204F464620524F4D53454C91
S1130060206269740072FDC040BD01810A0D524FC7
S11300704D53454C206973206F66662100BD018194
S11300800A0D4D6F76696E67206D6F6E69746F72BD
S113009020746F20686967682052414D008E4100CA
S11300A0CEC10010861F00113813BD01810A0D4D09
S11300B06F6E74696F722072656C6F6361746564CE
S11300C020746F20686967682052414D00BD01812A
S11300D00A0D6D6F64696679696E6720686967687F
S11300E02052414D20636F7079206F66204D6F6EF2
S11300F069746F72008652B7C1418641B7C14286A6
S11301004DB7C143BD01810A0D72657475726E6984
S11301106E6720746F206D6F646966696564205230
S1130120414D206D6F6E69746F720A0D007EC100BF
S1130130B6C0128E0147A68081FF270AB7C012A657
S113014080B7C01220F03909800900044403C105B6
S1130150EA0B050C040D000E010F00FFFFB6C012E0
S1130160B6C01284012706B6C0131CFB394F3934BC
S113017002B6C012B6C012840427F63502B7C01303
S1130180393410AE628D05AF623510393402A68061
S11301904D271081FF2711BD016F20F23402862004
S11301A0BD016F3502393402860ABD016F860DBD6B
S11301B0016F35023934028D071F988D03350239DA
S11301C034023402444444448D0735028D0335021D
S11301D0393402840F8B30813923028B07BD016FC0
S10601E0350239A8
S503001FDD
S9030000FC
