S01E00005B6C77746F6F6C7320342E313072635D207364746573742E61736D37
S1130000BD168D9D7ABD17010A0D53434320496ED9
S1130010697469616C697A6564007E100600123443
S1130020560000123450050000000000003AD200CF
S1130030000075A4000000EB48000001D690000009
S108004003AD200000E7
S113005040000000009548000001AA874900000004
S113006000007700000000656940000000007A008D
S1130070000000754C0000000000B6C0128E009114
S1130080A68081FF270AB7C012A680B7C01220F04D
S11300903909800900044403C105EA0B050C040D69
S11300A0000E010F00FFFFB6C012B6C01284012774
S11300B006B6C0131CFB394F393402B6C012B6C0A1
S10E00C012840427F63502B7C0133980
S10D1006BD17010A0D547279696EDA
S113101067206120434D44382E2E2E52373D00BDAB
S113102016E572EFC050BD147FBD16F00D45102AB1
S1131030003D7110C050BD17010A0D547279696EDC
S11310406720746F20726573657420534420636154
S113105072642E2E2E52313D00BD168D7B10C05071
S1131060102600B3BD145ABD173C2A037E1117BDC8
S113107017010A0D547279696E67206120434D444B
S1131080382E2E2E52373D00BD16E5BD147FBD16F9
S1131090F00D45102B00807110C050BD17010A0DD2
S11310A0547279696E6720616E2041434D44343136
S11310B0000F4B0C4B2B60BD17010A0D4669727370
S11310C0742073656E64696E6720434D4435352E14
S11310D02E2E52313D0072EFC050BD148DBD173C11
S11310E07110C050BD17010A0D4E657874207365E8
S11310F06E64696E6720434D4434312E2E2E523176
S11311003D0072EFC050BD1492BD173C7110C05029
S11311104D271C2B02209CBD17010A0D5465726DCE
S1131120696E6174696E67007110C0507EC100BD44
S113113017010A0D547279696E67206120434D448A
S113114035382E2E2E52313D0072EFC050BD16E5BB
S1131150BD1486BD16F07110C0500D452BB99646CE
S1131160854027B3BD17010A0D52656164696E6736
S1131170204D42522E2E2E5245543D0072EFC05047
S11311808E0200CC0027BD14D7BD173C7110C0508F
S1131190BD17010A0D4641542074797065203D0045
S11311A0B603C2BD173CBD17010A0D4C4241206F66
S11311B06620503120626F6F7420736563746F72A0
S11311C0203D008E1002B603C6A703B603C7A702CC
S11311D0B603C8A701B603C9A784FC1002BD173122
S11311E0FC1004BD1731BD17010A0D526561646915
S11311F06E6720626F6F7420736563746F722E2E36
S11312002E5245543D0072EFC0508E0200CC1002A5
S1131210BD14D7BD173C7110C050BD17010A0D2075
S1131220202042797465732070657220736563743D
S11312306F723D00F6020BB6020CBD1731BD1701EB
S11312400A0D202020536563746F727320706572D9
S113125020636C75737465723D00B6020DBD173C56
S1131260BD17010A0D2020205265736572766564EE
S113127020736563746F72733D00F6020EB6020F3D
S1131280BD1731BD17010A0D2020204E756D626512
S113129072206F6620464154733D00B60210BD179C
S11312A03CBD17010A0D202020536563746F7273CF
S11312B020706572204641543D00F60226B602278E
S11312C0BD1731F60224B60225BD1731BD17010A38
S11312D00D202020526F6F74206469726563746FEF
S11312E072792031737420636C75737465723D0078
S11312F0F6022EB6022FBD1731F6022CB6022DBD12
S11313001731BD17010A0D52656164696E67204C7F
S11313104241202330303132333435362E2E2E5292
S113132045543D0072EFC0508E0200CC001DBD1428
S1131330D7BD173C7110C050BD17010A0D206C6158
S113134073742062797465206F66204C42412023B7
S11313503030313233343536203D00B603FFBD170B
S11313603C8E0200DC1DED84DC1FED027C03FFBD1E
S113137017010A0D57726974696E67204C42412047
S11313802330303132333435362E2E2E5245543DEF
S11313900072EFC0508E0200CC001DBD1542BD1777
S11313A03C7110C050BD17010A0D52656164696E2D
S11313B067204C4241202330303132333435362ECD
S11313C02E2E5245543D0072EFC0508E0200CC00C8
S11313D01DBD14D7BD173C7110C050BD17010A0DB7
S11313E0206C6173742062797465206F66204C42AE
S11313F04120233030313233343536203D00B603BA
S1131400FFBD173C8E04006F808C100026F9BD17B9
S1131410010A0D52656164696E67204C42412023C4
S113142030303132333435303A352E2E2E52455445
S11314303D0072EFC0508E0400CC0022BD1606BDE4
S1131440173C7110C050BD17010A0D416C6C20642B
S11314506F6E6521007110C0503F7110C050712033
S1131460C050C60A86FFB7C0307B40C05026FA5A27
S113147026F272EFC05072DFC0508E0050202F8EC3
S113148000568D2A20118E006E8D23200A8E006254
S1131490201C8E006820179745BD16B8D746BD1688
S11314A0B8D747BD16B8D748BD16B8D7493934049C
S11314B0BD16B8C1FF26F95FA680BD16AE5CC10695
S11314C026F68E0000BD16B85D2A0730018C000890
S11314D026F31F9835043934101F01A603974EA62E
S11314E002974DA601974CA684974B8651974A0FB5
S11314F04F8E004A8DB88100261FBD16B85D2A1C88
S1131500C1FE26F635103410CC0200BD16C7BD1638
S1131510B8D745BD16B8D7464F3510391F98351082
S11315203934108E005CBD14AE8100270220EABD60
S113153016B85D2AE7C1FE26F635103410CC00102B
S113154020C934101F01A603974EA602974DA60189
S1131550974CA684974B8E004A8658A7846F05BD86
S113156014AE8100262BBD16B8BD16B886FEBD1676
S1131570A135103410CC0200BD16D6BD16B8BD1668
S1131580B8BD16B8C41F3404BD16B8C1FF26F9355A
S11315900235103934101F01A603974EA602974D49
S11315A0A601974CA684974BA604B710008E004A58
S11315B08659A7846F05BD14AE81002646BD16B8B2
S11315C0BD16B886FCBD16A13510CC0200BD16D6DA
S11315D03410BD16B8BD16B8BD16B8C41FF7100137
S11315E0BD16B8C1FF26F97D100027057A1000202A
S11315F0CC86FDBD16AEBD16B8BD16B8C1FF26F922
S1131600B6100135103934101F01A603974EA602F7
S1131610974DA601974CA684974BA604B710008655
S113162052974A0F4F8E004ABD14AE81002656BD14
S113163016B85D2A53C1FE26F63510CC0200BD163D
S1131640C73410BD16B8BD16B87D100027087A102F
S11316500020DC8E0074BD16B8C1FF26F95FA68099
S1131660BD16AE5CC10626F6BD16B88E0000BD16CA
S1131670B85D2A0730018C000826F31F98BD16B800
S1131680C1FF26F94F3510391F983510397110C034
S1131690507B80C050270472EFC050397110C05085
S11316A039B7C0307B40C05026FAF6C03039B7C0D5
S11316B0307B40C05026FA39C6FFF7C0307B40C0AB
S11316C05026FAF6C030393404BD16B8E780350424
S11316D083000126F2393402A680BD16AE3502839A
S11316E0000126F2398E00456F808C004A25F939B5
S11316F08E0045A680BD173CBD171B8C004A25F300
S1131700393410AE628D05AF623510393402A680CB
S11317104D270E81FF270F9DB920F3340286209DAB
S1131720B93502393402860A9DB9860D9DB9350250
S11317303934028D071F988D03350239340234027F
S1131740444444448D0735028D0335023934028400
S11117500F8B30813923028B079DB935023986
S503008379
S9030000FC
