S1230300BD1994BD037BBD1A200A0D53434320496E697469616C697A6564007E130600120E
S123032034560000123450050000000000003AD200000075A4000000EB48000001D69000D5
S10903400003AD200000E3
S123035140000000009548000001AA874900000000007700000000656940000000007A00F1
S1230371000000754C0000000000B602128E0392A68081FF270AB70212A680B7021220F017
S12303913909800900044403C105EA0B050C040D000E010F00FFFFB60212B60212840127F9
S11E03B106B602131CFB394F393402B60212B60212840427F63502B7021339D9
S1231306BD1A200A0D547279696E6720746F20726573657420534420636172642E2E2E52A5
S1231326313D00BD1994BD172BBD1A5F2A037E13E2BD1A200A0D547279696E672061204387
S12313464D44382E2E2E52373D00BD1A04BD1753BD1A0F7D0346102B008271040230BD1A81
S1231366200A0D547279696E6720616E2041434D443431007F034C7C034C2B60BD1A200A01
S12313860D46697273742073656E64696E6720434D4435352E2E2E52313D0072FB0230BD22
S12313A61761BD1A5F71040230BD1A200A0D4E6578742073656E64696E6720434D443431C0
S12313C62E2E2E52313D0072FB0230BD1766BD1A5F710402304D271C2B02209BBD1A200A8A
S12313E60D5465726D696E6174696E6700710402307EC000BD1A200A0D547279696E6720C4
S12314066120434D4435382E2E2E52313D0072FB0230BD1A04BD175ABD1A0F710402307D04
S123142603462BB8B60347854027B1BD1A200A0D52656164696E67204D42522E2E2E5245EF
S1231446543D0072FB02308E0500CC0328BD17B0BD1A5F71040230BD1A200A0D464154205E
S123146674797065203D00B606C2BD1A5FBD1A200A0D4C4241206F6620503120626F6F7448
S123148620736563746F72203D008E1302B606C6A703B606C7A702B606C8A701B606C9A7E2
S12314A600FC1302BD1A54FC1304BD1A54BD1A200A0D52656164696E6720626F6F74207379
S12314C66563746F722E2E2E5245543D0072FB02308E0500CC1302BD17B0BD1A5F710402EF
S12314E630BD1A200A0D20202042797465732070657220736563746F723D00F6050BB60528
S12315060CBD1A54BD1A200A0D202020536563746F72732070657220636C75737465723D73
S123152600B6050DBD1A5FBD1A200A0D202020526573657276656420736563746F72733D95
S123154600F6050EB6050FBD1A54BD1A200A0D2020204E756D626572206F66204641547349
S12315663D00B60510BD1A5FBD1A200A0D202020536563746F727320706572204641543D33
S123158600F60526B60527BD1A54F60524B60525BD1A54BD1A200A0D202020526F6F7420B7
S12315A66469726563746F72792031737420636C75737465723D00F6052EB6052FBD1A5477
S12315C6F6052CB6052DBD1A54BD1A200A0D52656164696E67204C424120233030313233D7
S12315E63435362E2E2E5245543D0072FB02308E0500CC031EBD17B0BD1A5F71040230BD53
S12316061A200A0D206C6173742062797465206F66204C42412023303031323334353620EB
S12316263D00B606FFBD1A5F8E0500FC031EED00FC0320ED027C06FFBD1A200A0D57726906
S123164674696E67204C4241202330303132333435362E2E2E5245543D0072FB02308E0523
S123166600CC031EBD1823BD1A5F71040230BD1A200A0D52656164696E67204C42412023A4
S123168630303132333435362E2E2E5245543D0072FB02308E0500CC031EBD17B0BD1A5F20
S12316A671040230BD1A200A0D206C6173742062797465206F66204C4241202330303132D9
S12316C633343536203D00B606FFBD1A5F8E07006F808C130026F9BD1A200A0D5265616414
S12316E6696E67204C4241202330303132333435303A352E2E2E5245543D0072FB02308E93
S12317060700CC0323BD18EFBD1A5F71040230BD1A200A0D416C6C20646F6E6521007104A2
S123172602307EC000710402307102023071010230C65072FD02301212710202305A26F34C
S123174672FD023072FB02308E035120348E03578D2F20118E036F8D28200A8E0363202120
S12317668E0369201CB70346BD19DDF70347BD19DDF70348BD19DDF70349BD19DDF7034A53
S1231786393404BD19DDC1FF26F95FA680BD19D65CC10626F68E0000BD19DD5D2A073001CC
S12317A68C000826F31F9835043934101F01A603B7034FA602B7034EA601B7034DA600B778
S12317C6034C8651B7034B7F03508E034B8DB281002621BD19DD5D2A1EC1FE26F635103473
S12317E610CC0200BD19E6BD19DDF70346BD19DDF703474F3510391F9835103934108E0387
S12318065DBD17878100270220EABD19DD5D2AE7C1FE26F635103410CC001020C734101FA7
S123182601A603B7034FA602B7034EA601B7034DA600B7034C8E034B8658A7006F05BD1738
S1231846878100262BBD19DDBD19DD86FEBD19A735103410CC0200BD19F5BD19DDBD19DD36
S1231866BD19DDC41F3404BD19DDC1FF26F9350235103934101F01A603B7034FA602B703D1
S12318864EA601B7034DA600B7034CA604B713008E034B8659A7006F05BD17878100264604
S12318A6BD19DDBD19DD86FCBD19A73510CC0200BD19F53410BD19DDBD19DDBD19DDC41F9B
S12318C6F71301BD19DDC1FF26F97D130027057A130020CC86FDBD19D6BD19DDBD19DDC1D6
S12318E6FF26F9B6130135103934101F01A603B7034FA602B7034EA601B7034DA600B703A4
S12319064CA604B713008652B7034B7F03508E034BBD178781002656BD19DD5D2A53C1FECE
S123192626F63510CC0200BD19E63410BD19DDBD19DD7D130027087A130020DC8E0375BDFD
S123194619DDC1FF26F95FA680BD19D65CC10626F6BD19DD8E0000BD19DD5D2A0730018CF9
S1231966000826F31F98BD19DDC1FF26F94F3510391F983510397104023071020230710133
S1231986023072FB023072FD023072FE0230B60230854027058604B70230398604B7023031
S12319A6393402C60172FD023072FE0230482404710102308D19710202301A017B800230FD
S12319C626021CFE598D0872FD023024DC35023934048DCD350439340286FF8DC43502393C
S12319E63404BD19DDE780350483000126F2393402A680BD19D6350283000126F2398E03D8
S1231A06466F808C034B25F9398E0346A680BD1A5FBD1A3B8C034B25F3393410AE628D0500
S1231A26AF623510393402A6804D271081FF2711BD03BA20F234028620BD03BA35023934EF
S1231A4602860ABD03BA860DBD03BA35023934028D071F988D03350239340234024444443A
S11F1A66448D0735028D033502393402840F8B30813923028B07BD03BA35023972
S9030000FC
