S01E00005B6C77746F6F6C7320342E313072635D207364746573742E61736D37
S1130000BD053EBD0608BD05AC0A0D53434320495A
S11300106E697469616C697A656400BD05AC0A0D2A
S1130020547279696E67206120434D44382E2E2E18
S113003052373D00BD059072EFC050BD031F7110D3
S1130040C050BD059B7D0681102A0069BD05AC0A20
S11300500D547279696E6720746F207265736574CC
S113006020534420636172642E2E2E52313D00BD14
S1130070053E7B10C050102600B9BD02FABD05E94B
S1130080102B00AFBD05AC0A0D547279696E672060
S11300906120434D44382E2E2E52373D00BD05902D
S11300A072EFC050BD031F7110C050BD059B7D068B
S11300B081102B007EBD05AC0A0D547279696E6700
S11300C020616E2041434D443431007F06877C0615
S11300D0872B60BD05AC0A0D466972737420736585
S11300E06E64696E6720434D4435352E2E2E523191
S11300F03D0072EFC050BD032D7110C050BD05E925
S1130100BD05AC0A0D4E6578742073656E64696E26
S11301106720434D4434312E2E2E52313D0072EF70
S1130120C050BD0332BD05E97110C0504D271C2BD2
S113013002209BBD05AC0A0D5465726D696E617435
S1130140696E67007110C0507EC100BD05AC0A0D18
S1130150547279696E67206120434D4435382E2EE0
S11301602E52313D0072EFC050BD0590BD0326BD37
S1130170059B7110C0507D06812BB8B60682854060
S113018027B1BD05AC0A0D52656164696E67204CE8
S11301904241202330303132333435362E2E2E5224
S11301A045543D0072EFC0508E0800CC0659BD0383
S11301B07CBD05E97110C050BD05AC0A0D206C6111
S11301C073742062797465206F6620626C6F636B50
S11301D020627566666572203D00B609FFBD05E9BB
S11301E08E0800FC0659ED84FC065BED027C09FFD9
S11301F0BD05AC0A0D206C617374206279746520AE
S11302006F6620626C6F636B206275666665722030
S11302103D00B609FFBD05E9BD05AC0A0D5772697D
S113022074696E67204C42412023303031323334BC
S113023035362E2E2E5245543D0072EFC0508E0896
S113024000CC0659BD03EBBD05E97110C0507F0811
S1130250008E0800CE0801108601FF113813BD0579
S1130260AC0A0D206C6173742062797465206F662A
S113027020626C6F636B20627566666572203D0058
S1130280B609FFBD05E9BD05AC0A0D526561646997
S11302906E67204C424120233030313233343536BE
S11302A02E2E2E5245543D0072EFC0508E0800CCC5
S11302B00659BD037CBD05E97110C050BD05AC0AEB
S11302C00D206C6173742062797465206F662062FE
S11302D06C6F636B20627566666572203D00B609BB
S11302E0FFBD05E9BD05AC0A0D416C6C20646F6E61
S11302F06521007110C0507EC1007110C050712082
S1130300C050C60A86FFB7C0307B40C05026FA5A98
S113031026F272EFC05072DFC0508E068C20348EED
S113032006928D2F20118E06AA8D28200A8E069EF5
S113033020218E06A4201CB70681BD0568F706821D
S1130340BD0568F70683BD0568F70684BD0568F733
S11303500685393404BD0568C1FF26F95FA680BD52
S1130360055E5CC10626F68E0000BD05685D2A07A1
S113037030018C000826F31F9835043934101F010E
S1130380A603B7068AA602B70689A601B70688A6F9
S113039084B706878651B706867F068B8E06868DC0
S11303A0B28100261FBD05685D2A1CC1FE26F6AE7B
S11303B0E4CC0200BD0575BD0568F70681BD05687E
S11303C0F706824F3510391F9835103934108E06D0
S11303D098BD03538100270220EABD05685D2AE722
S11303E0C1FE26F6AEE4CC001020C934101F01A6CD
S11303F003B7068AA602B70689A601B70688A684AB
S1130400B706878E06868658A7846F05BD03538179
S1130410002629BD0568BD056886FEBD0552AEE40B
S1130420CC0200BD0582BD0568BD0568BD0568C474
S11304301F3404BD0568C1FF26F93502351039346F
S1130440101F01A603B7068AA602B70689A601B73C
S11304500688A684B70687A604B706B68659A78475
S11304606F05BD035381002646BD0568BD0568863A
S1130470FCBD05523510CC0200BD05823410BD050B
S113048068BD0568BD0568C41FF706B7BD0568C12A
S1130490FF26F97D06B627057A06B620CC86FDBD73
S11304A0055EBD0568BD0568C1FF26F9B606B7350A
S11304B0103934101F01A603B7068AA602B70689AD
S11304C0A601B70688A684B70687A604B706B6862B
S11304D052B706867F068B8E0686BD03534D26567D
S11304E0BD05685D2A53C1FE26F63510CC0200BD59
S11304F005753410BD0568BD05687D06B627087A04
S113050006B620DC8E06B0BD0568C1FF26F95FA6DD
S113051080BD055E5CC10626F6BD05688E0000BD83
S113052005685D2A0730018C000826F31F98BD0575
S113053068C1FF26F94F3510391F983510397110ED
S1130540C0507B80C050270472EFC050397110C076
S113055050398D0A7B40C05026FAF6C030397B40B2
S1130560C05026FAB7C030397B40C05026FAC6FFC7
S1130570F7C03020DF34048DEFE7803504104A26BD
S1130580F4393402A680BD055E3502104A26F339DB
S11305908E06816F808C068625F9398E0681A680A9
S11305A0BD05E9BD05C78C068625F3393410AE6256
S11305B08D05AF623510393402A6804D272881FF9E
S11305C02710BD064720F234028620BD06472016B8
S11305D03402860ABD0647860DBD0647200834024C
S11305E08D071F988D033502393402444444448DE9
S11305F006A6E48D0220EF3402840F8B3081392368
S1130600028B07BD064720DEB6C0128E061FA680E9
S113061081FF270AB7C012A680B7C01220F039099B
S1130620800900044403C105EA0B050C040D000E07
S1130630010F00FFFFB6C012B6C01284012706B630
S1130640C0131CFB394F393402B6C012B6C0128431
S11306500427F63502B7C0133900123456000012CD
S11306603450050000000000003AD200000075A4D8
S1130670000000EB48000001D690000003AD20000C
S10406800075
S107068C4000000026
S1130690009548000001AA87490000000000770087
S11306A0000000656940000000007A000000007549
S10906B04C0000000000F4
S503006D8F
S9030000FC
