S01E00005B6C77746F6F6C7320342E31305D20524F4D62617369632E41534D13
S113D0008D0327FC39B6E012B6E01285012706B677
S113D010E013847F394F398D243402810D270BB7F7
S113D020E0130C799679917825100F798D0F860D80
S113D030B7E0138D08860AB7E0133502393402B617
S113D040E012B6E012850427F635023910CE01EE5F
S113D05072FCE05072FEE040BDF6F5966E815526F6
S113D0600A9E6FA684811226026E847113E0508E8C
S113D07002186F83300126FA8E02176F809F19A65B
S113D0800243A702A10226063001630120F19F7129
S113D0909F279F233089FF389F211F148ED0F0CE05
S113D0A00076C612BDD1D1CE00A7C604BDD1D186AB
S113D0B03997F0BDD4DD8E00B59F8DCEDBF1C60A65
S113D0C0EF815A26FBBDD00527FB72FEE050BDD090
S113D0D00527FB72FCE0508ED125BDE4038ED0E819
S113D0E09F6F8655976E200412BDD4F77ED4453BBE
S113D0F010405000DBF10C8426020C83B600007E45
S113D100D1E27ED1E17ED0EF7EDBF1804FC7525970
S113D11032D240D34D1DD2E0D1F100000000000016
S113D1200000000000000D363830392045585445C1
S113D1304E4445442042415349430D28432920315C
S113D140393832204259204D4943524F534F4654A7
S113D1500D0D0034169E76DC789F6AD76C976D357A
S113D160960F738E00F4C601BDD000810826075ABD
S113D17027EF301F20348115260A5A27E48608BD7C
S113D180D01720F681031A012705810D260D4F348F
S113D19001BDE3C36F848E00F33581812025C981ED
S113D1A07B24C5C1FA24C1A7805CBDD01720B92750
S113D1B005BDDEE49F7A6E9F007A7ED5C6967326FF
S113D1C003BDD0050F73975310260C6A97567EDE65
S113D1D042A680A7C05A26F939399D8227FB7EDAF8
S113D1E0233B813A240A812026020E7C803080D0A1
S113D1F039E6E1E755E6FA00ADE986E9DBDEF7DE7C
S113D20028DCA4DEBDDE47DE33EA8BEA53EA5CEBBE
S113D210CDEBFFEB21ED87EB5BF259DE52DE6FDEE7
S113D22076D1BDDC95ED8FEE4FEE1F79E42C79E4D9
S113D230237BE5337BE5F87FEB6450DA7C46DA7BCD
S113D240464FD247CF5245CDA7454C53C549C64456
S113D2504154C15052494ED44FCE494E5055D445F5
S113D2604EC44E4558D44449CD524541C45255CE7E
S113D270524553544F52C55245545552CE53544FB0
S113D280D0504F4BC5434F4ED44C4953D4434C45D7
S113D29041D24E45D7455845C354524FCE54524FB0
S113D2A046C64445CC4445C64C494EC552454E55E8
S113D2B0CD454449D4544142A854CF5355C254484F
S113D2C045CE4E4FD4535445D04F46C6ABADAAAF0E
S113D2D0DE414EC44FD2BEBDBC46CE5553494EC7A7
S113D2E05347CE494ED44142D35553D2524EC453E0
S113D2F049CE504545CB4C45CE535452A45641CC0F
S113D3004153C3434852A44154CE434FD35441CE16
S113D3104558D04649D84C4FC7504FD35351D248A3
S113D3204558A44C454654A45249474854A44D4931
S113D33044A4494E4B4559A44D45CD5641525054F1
S113D340D2494E5354D2535452494E47A4D50BD6C6
S113D35056D6B3D6B3D6B3D6E4D6B0E388D712D76D
S113D360BFD5DDD8A4DAF5D7F9D64BD5BFD690D53D
S113D370E1DEFED606E200D617D4DBD1AFED82EDB6
S113D38083EFFEEF42F6ECF088EC0E4E46534E521D
S113D390474F4446434F564F4D554C425344442FF8
S113D3A0304944544D4F534C535354434E464441D7
S113D3B04F444E494F464D4E4F4945445355464EB2
S113D3C045204552524F520020494E20000D4F4BEC
S113D3D00D000D425245414B003064C6129F0FA60A
S113D3E08480802615AE019F119E3B27099C11273E
S113D3F0099E0F3A20E59E119F3B9E0F4D398D17D4
S113D400DE4133419E433001A68236029C4726F812
S113D410DF45394F58D31FC3003A250810DF1710D2
S113D420931725EEC60CBDD4F7BDE3C7BDE4168E35
S113D430D38B3A8D318D2F8ED3C0BDE40396684CC7
S113D4402703BDE82CBDE3C78ED3CDBDE403BDD116
S113D45061CEFFFFDF6825F69F839D7C27F0250BB7
S113D460BDE2B57ED594A6807EE418BDD7379E2B49
S113D4709FF1BDE2B5D7038D4C2512DC47A384D3BD
S113D4801BDD1BEE843702A7809C1B26F896F3272E
S113D4901CDC1BDD43DB038900DD41BDD3FECE0074
S113D4A0EF3702A7809C4526F89E419F1B8D368D41
S113D4B002209B9E19EC8427213304A6C026FCEF8E
S113D4C084AE8420F0DC2B9E19EE84270910A3027D
S113D4D02306AE8420F31A019F473926FB9E196F59
S113D4E0806F809F1B9E19BDD68B9E279F23BDD521
S113D4F0BF9E1B9F1D9F1F8E00C99F0BAEE410DEB5
S113D500216FE20F2D0F2E0F086E8486809708BDC1
S113D510D759BDD3D9326226049E0F3285C609BDC0
S113D520D413BDD6B8DC683416C6A0BDDA1BBDD88A
S113D530EFBDD8EDD654CA7FD450D750108ED54302
S113D5407ED9968EE52CBDE67B9D8281A426059D21
S113D5507CBDD8EDBDE6D4BDD992DC3B34068680D3
S113D56034021CAF8D609E839F2FA6802707813ACB
S113D57027227EDA23A68197002772EC80DD689F3C
S113D58083968C270F865BBDD0179668BDE83386DB
S113D5905DBDD0179D7C8D0220C827294D102A011E
S113D5A0B881FF270F819E22C9BED113481F893A33
S113D5B09D7C6E949D7C8197102717EB7EDA239EC9
S113D5C019301F9F3339BDD005270A8103271281E3
S113D5D0132703977339BDD00527FB20EE9D8220C6
S113D5E0021A0126319E839F2F060032629E688CA8
S113D5F0FFFF27069F299E2F9F2D8ED3D10D00104C
S113D6002AFE427ED43A260EC6209E2D1027FE16F0
S113D6109F839E299F6839272CBDDB8D34069E2766
S113D6209D82270CBDDA19BDDEE4301F9C712218DF
S113D6301F10A3E125121F0383003A250B931B251A
S113D64007DF219F277ED4EA7ED4249D821027FE03
S113D65094BDD4EA20191F899D7CC1A02716C1A1BD
S113D6602645C603BDD413DE839E6886A134528D3D
S113D670037ED5629D82BDD7378D403001DC2B10EF
S113D680936822029E19BDD4C92517301F9F833980
S113D69026FD86FF973BBDD3D91F148121270BC6D6
S113D6A0048CC60E7ED4267EDA2335529F68DF832F
S113D6B08D068C8D069F8339C63A865FD7015F9E9F
S113D6C0831F98D6019701A68427EC3404A1E02790
S113D6D0E63001812227EA4C26023001818626E7C2
S113D6E00C0420E3BDD8ED9D8281812705C6A2BD2F
S113D6F0DA1B964F26130F048DB64D27BA9D7C81F5
S113D7008426F50A042AF19D7C9D821025FF657EFE
S113D710D59ABDDEB2C681BDDA1B340281A12704CD
S113D72081A026830A53260535047ED6589D7C8D18
S113D73006812C27EF35849E749F2B2461803097BB
S113D74001DC2B811822DB58495849D32B5849DB7B
S113D750018900DD2B9D7C20E2BDDAFE9F3BC6AE35
S113D760BDDA1B96063402BDD902350246BDD8F493
S113D77010270F269E52DC2110A30224119C1B2586
S113D7800DE684BDDCB49E4DBDDDEA8E00569F4D92
S113D790BDDE1CDE4D9E3B3726A78410AF02393F09
S113D7A05245444F0D007ED426960927079E319F8B
S113D7B0687EDA238ED79EBDE4039E2F9F8339C6ED
S113D7C0169E68300127DF8D01398122260BBDD9D1
S113D7D0F0C63BBDDA1BBDE4068E00F36F848D06F4
S113D7E0C62CE7842016BDE416BDE413BDD1612424
S113D7F00532647ED5E9C62E399E33864F97099F3C
S113D80035BDDAFE9F3B9E839F2B9E35A684260959
S113D81096092651BDE4168DCD9F839D7CD606279F
S113D820239E8397018122270E301F4F9701BDD17C
S113D83053863A9701862C9702BDDCC5BDD9F5BD48
S113D840D7742006BDE779BDE69A9D822706812C10
S113D8501026FF529E839F359E2B9F839D822721F6
S113D860BDDA19209C9F83BDD6B830014D260AC667
S113D87006EE812741EC81DD31A684818626E620EF
S113D880989E35D6091026FD3AA68427068ED8938D
S113D8907EE403393F45585452412049474E4F5284
S113D8A045440D0026049E742003BDDAFE9F3BBD53
S113D8B0D3D92704C60020471F143003BDE67BA636
S113D8C06897549E3BBDE429BDE69A3069BDE6FDE8
S113D8D0E068270CAE6E9F68AEE8109F837ED56229
S113D8E032E8129D82812C26F49D7C8DBD8D131C03
S113D8F0FE7D1A010D0625032A998C2B96C6187EE7
S113D900D4268D6E4F8C34043402C601BDD413BDAD
S113D910D9CF0F3F9D8280AD25138103240F810150
S113D92049983F913F2564973F9D7C20E9D63F2647
S113D930331024006B8B072467990610270477891A
S113D940FF340248ABE08ED22B30863502A184240A
S113D950558D9C34028D299E3D3502261D4D102780
S113D960006A204B0806598D098ED977D73F0F06D8
S113D97020D99E837ED68B64DA9BA184243120D364
S113D980EC0134068D08D63F16FF7B7EDA23D6548D
S113D990A68435203404D64F9E50DE5234546EA4EF
S113D9A09E74A6E0272681642703BDD8EF9F3D35EA
S113D9B004815A2719817D271554D70A3552975C5B
S113D9C09F5DDF5F3504D761D854D762D64F39BD28
S113D9D0EF170F069D7C24037EE779BDDB492450B5
S113D9E0812E27F481A7274081A627E38122260AD6
S113D9F09E83BDDCBF9E649F833981A3260D865A16
S113DA00BDD906BDDB9443537EDC9B4C272E8D068B
S113DA10BDD902C6298CC6288CC62CE19F0083265A
S113DA20020E7CC6027ED426867DBDD9067EE950D0
S113DA30BDDAFE9F52960626957EE67B9D7C1F8965
S113DA40589D7CC13823037EDA233404C12A251E61
S113DA50C130241C8DC0A6E4BDD9028DBCBDD8F252
S113DA603502DE523442BDDEB2350234068E8D9E5E
S113DA703504BED1183AAD947ED8EF864F9703BDD6
S113DA80DB94DD01BDE6B1BDDB940D0326069401F4
S113DA90D40220049A01DA027EDC9BBDD8F426105D
S113DAA096618A7F945D975D8E005CBDE6FD2036AD
S113DAB00F060A3FBDDDFED7569F589E5FBDDE00B0
S113DAC096563404A0E0270786012403D6564097CF
S113DAD054DE585C5A2604D654200BA680A1C027D5
S113DAE0F3C6FF240150CB0159D40A2702C6FF7E96
S113DAF0E6E3BDDA19C6018D089D8226F5395F9DDE
S113DB0082D70597379D828D401025FF165FD70673
S113DB109D7C25048D33250A1F899D7C25FC8D2938
S113DB2024F8812426060306CB809D7CD7389A08E6
S113DB308028102700750F089E1BDC379C1D2712B8
S113DB4010A381273E300520F381412504805B80AA
S113DB50A5398E0074EEE41183DA332728DC1FDD47
S113DB6043C30007DD419E1D9F47BDD3FE9E419FD9
S113DB701F9E459F1D9E47DC37ED814F5FED84ED71
S113DB8002A7049F393990800000009D7CBDD8ED28
S113DB9096542B5DBDD8EF964F819025088EDB8679
S113DBA0BDE6FD264CBDE72FDC5239DC05340612F8
S113DBB05F9E3734148DD435349F37DE5234605C25
S113DBC09D82812C27EBD703BDDA133506DD059E34
S113DBD01D9C1F2721DC3710A3842706EC02308B01
S113DBE020EFC6129605260BD603E1042759C6106A
S113DBF08CC6087ED426CC0005DD64DC37ED84D6E3
S113DC0003E704BDD4139F41C60B4F0D052705350B
S113DC1006C30001ED058D5DDD6430020A0326E8CC
S113DC209F0FD30F1025F7FC1F01BDD417830035B8
S113DC30DD1F4F301FA7059C0F26F89E41961F93AA
S113DC4041ED029605262DE604D7034F5FDD6435CA
S113DC5006DD5210A305243ADE6427048D17D3523F
S113DC6030020A0326E7EDE358495849E3E1308BD3
S113DC7030059F393986109745EC05DD174F5F58FD
S113DC8049250F086509642404D31725050A452688
S113DC90EE397EDBEE1F40931F214F0F06DD50C689
S113DCA0907EE6E9BDD8EFCE01F0BDE84332628E46
S113DCB001EF200B9F4D8D5C9F58D75639301F863E
S113DCC0229701970230019F629F58C6FF5CA6808D
S113DCD0270C91012704910226F381222702301F89
S113DCE09F64D756DE62118301F022078DC69E62BF
S113DCF0BDDDEC9E0B8C00F12605C61E7ED4269657
S113DD0056A700DC58ED0286FF97069F0D9F523000
S113DD10059F0B390F074F3406DC23A3E010932132
S113DD20250ADD239E2330019F253584C61A030767
S113DD3027CA8D04350420DE9E279F234F5FDD4BC9
S113DD409E219F478E00C99C0B27048D3220F89E8C
S113DD501B9C1D27048D2220F89F419E419C1F2758
S113DD6035EC02D341DD41A6012AF0E60458CB0587
S113DD703A9C4127E88D0820F8A60130022A14E6CF
S113DD80842710EC02109323220910934723049F45
S113DD904BDD473005399E4B27FB4FE6845AD3476A
S113DDA0DD439E239F41BDD4009E4BDC45ED029E86
S113DDB045301F7EDD3ADC523406BDD9CFBDD8F2E2
S113DDC035109F62E6849E52EB842405C61C7ED4E3
S113DDD026BDDCB49E62E6848D109E4D8D228D0C92
S113DDE09E628D1CBDDCF37ED914AE02DE255C2060
S113DDF004A680A7C05A26F9DF2539BDD8F29E5261
S113DE00E6848D182613AE07301F9C23260834049D
S113DE10D323DD233504300139AE02399C0D2607A6
S113DE209F0B301B9F0D4F398D037EDC9A8DCC0FD9
S113DE30065D39BDDEB5C601BDDD149653BDDCB843
S113DE40A78432627EDCF38D0220DF8DE0275EE65C
S113DE5084398D484FE1842303E6844F3406BDDCC6
S113DE60B69E4D8D9B35043A3504BDDDEC20D58D31
S113DE702BA0844020DFC6FFD7539D82812927052C
S113DE80BDDA198D2D8D1527245F4AA18424CD1F59
S113DE9089E08450D15323C4D65320C0BDDA13EE95
S113DEA0E4AE659F4DA664E66432671F357EDBF100
S113DEB09D7CBDD8EDBDDB904D26F20E82BDDE2DDE
S113DEC0102705DCDE839F833AA68434526F849D39
S113DED082BDE7793552A784DF83398D079F2BBD37
S113DEE0DA1920CEBDD8ED96542BC2964F819022DC
S113DEF0BCBDE72F9E52398DEEE6847EDC9A8DDB25
S108DF009E2BE78439AB
S113E000457874656E646564204D532042415349DC
S113E010432077697468206175746F7374617274D6
S113E02020524F4D00546869732069732061206445
S113E03065726976656420776F726B2066726F6DA6
S113E0402074686174206F66205C20536561726C73
S113E050652E00687474703A2F2F736561726C6555
S113E0602E686F737465692E636F6D2F6772616EAE
S113E070742F363830392F53696D706C65363830EB
S113E080392E68746D6C004920686176652075735B
S113E0906564204772616E742773203638303920E6
S113E0A0457874656E646564204241534943207722
S113E0B06974682076657279206D696E696D616C2A
S113E0C020616461706174696F6E7320746F207075
S113E0D06F727420746F2068643633303920435073
S113E0E055206F7220746865205342432068617222
S113E0F064776172652E205265717569726573204B
S113E100534243363330392043504C442056312E49
S113E11033210074617267657420746F6F6C636877
S113E12061696E3A206C77746F6F6C73206C7761E1
S113E130736D2076657220342E313000746F6D63F8
S113E14069726375697440676D61696C2E636F6D84
S10EE15020352F32352F3230313400DF
S113E2003401BDD737BDD4C59F66350127129D8221
S113E210271381A726099D7C2706BDD737270639F2
S113E220CEFFFFDF2B32629E66BDE3C7BDD1BAECE1
S113E2308426037ED4459F66EC0210932B22F4BD02
S113E240E833BDE4139E668D10AE9F0066CE00F4E5
S113E250A6C027D5BDE41820F73004108E00F4A61C
S113E2608027512B15813A260DE684C18427F0C1FD
S113E2708327EC8C86218D3020E5CED10681FF26C4
S113E28004A6803345847F334A6DC427E7A0C42A9B
S113E290F6ABC4EE414A2B066DC02AFC20F7A6C497
S113E2A08D066DC02AF820B7108C01ED2406847FFA
S113E2B0A7A06FA4399E83CE00F30F430F44A6801A
S113E2C027210D43270FBDDB492418813025048104
S113E2D03923100F438120270A9742812227380DC2
S113E2E0442719A7C02706813A27CF20D16FC06FD2
S113E2F0C01F308300F18E00F29F8339813F2604D2
S113E300868720DF81272613CC3A83EDC10F42A6EE
S113E3108027D0914227CCA7C020F48130250481E6
S113E3203C25C0301F34500F41CED1060F42334A32
S113E330A6C4273110AE41AEE4E6A0E08027FAC1BE
S113E34080263832623540DA4296412606C1842658
S113E35006863AEDC12094E7C0C18626020C44C16A
S113E3608227AA2086CED10B034126C03550A68031
S113E370A7C0BDDB4925EC034320E80C424A27AE85
S113E380313FE6A02AFC20AF27398D0139BDF2EDDB
S113E390273E819F2753812C2737813B2760BDD996
S113E3A002960634022606BDE840BDDCBD8D573515
S113E3B004BDD1535D26089D82812C27148D549D64
S113E3C08226CF860D2051BDD15327F7966C26F3B4
S113E3D039BDD153270AD66CD16B25068DE5201E95
S113E3E0D66CD06A24FC502010BDDEB081291026E2
S113E3F0F631BDD153D06C23058D185A26FB9D7C74
S113E4007EE390BDDCBFBDDDFE5C5A27C3A6808DD4
S113E4100720F786208C863F7ED0178EE9272009B7
S113E420BDE596035403622003BDE5965D10270203
S113E430808E005C1F895D276CD04F2769250A9761
S113E4404F966197548E004F50C1F82F594F640175
S113E450BDE521D6622A0B630163026303630443AF
S113E460890097639653996097539652995F975290
S113E4709651995E97519650995D97505D2A44251F
S113E480028D5D5F9650262E965197509652975165
S113E49096539752966397530F63CB08C1282DE484
S113E4A04F974F9754398D6D5F20A85C08630953CB
S113E4B00952095109502AF3964F3404A0E0974FAA
S113E4C023DE8C2508086386009763200C0C4F27F5
S113E4D028065006510652065324048D0D27EE39A2
S113E4E0035403500351035203539E5230019F526D
S113E4F026069E5030019F5039C60A7ED4268E00CF
S113E50012A6049763A603A704A602A703A601A75D
S113E51002965BA701CB082FE89663C008270C6717
S113E52001660266036604465C26F4398100000035
S113E530008D6327608D788600971397149715973D
S113E54016D6538D22D663D78BD6528D1AD663D75F
S113E5508AD6518D12D663D789D6508D0CD663D7FF
S113E56088BDE6727EE483279543961356272624B6
S113E5701696169B6097169615995F97159614999B
S113E5805E97149613995D4697130614061506169E
S113E59006634F20D539EC0197618A80DD5DD66131
S113E5A0D854D762EC03DD5FA684975CD64F394D0F
S113E5B027169B4F464928108B80974F270C96624D
S113E5C097543996544320023262102AFED27EE4D4
S113E5D0F9BDE6C6270D8B0225F40F62BDE4340CA9
S113E5E04F27EB398420000000BDE6C68EE5E45FCA
S113E5F0D762BDE67B8C8D9E2773004F8DB10C4F87
S113E60027CC8E0013C604D703C6019650915D260D
S113E610139651915E260D9652915F26079653915B
S113E620602601431FA859240AE7800A032B3427D4
S113E6302EC6011F8A250E0860095F095E095D2543
S113E640E32BC820DF966090539760965F925297B1
S113E6505F965E9251975E965D9250975D20D8C604
S113E6604020D0565656D7638D087EE483C6147E68
S113E670D4269E139F509E159F52393402EC019765
S113E680548A80DD500F63E684AE039F52D74F3522
S113E690828E004520068E00408C9E3B964FA784B8
S113E6A096548A7F9450A7019651A702DE52EF0335
S113E6B039966197549E5C9F4F0F63965E9751966F
S113E6C0549E5F9F5239DC4FDD5C9E519F5E9E538A
S113E6D09F604D39D64F2708D65459C6FF2501509F
S113E6E0398DF1D7500F51C68896508080D74FDCB2
S113E6F074DD52976397547EE47F0F5439E6842780
S113E700D3E601D8542BD1D64FE184261DE601CAA5
S113E7107FD450E1012613D651E102260DD652E1F1
S113E720032607D653E00426013956D85420ABD625
S113E7304F273DC0A096542A05035BBDE4E28E003A
S113E7404FC1F82E06BDE5150F5B390F5B96544992
S113E75006507EE521D64FC1A0241D8DD2D76396E5
S113E76054D754808086A0974F965397017EE47FB8
S113E770D750D751D752D753399E749F549F4F9F28
S113E780519F529F479F452564BDEEB6812D2604B7
S113E79003552004812B26049D7C2551812E272896
S113E7A0814526289D7C256481A7270E812D270A73
S113E7B081A62708812B2704200603489D7C254C2D
S113E7C00D48270800472004034626CC9647904569
S113E7D0974727122A09BDE5E90C4726F92007BD0A
S113E7E0E5D10A4726F996552A8E7EE950D645D0BA
S113E7F046D7453402BDE5D13504C0308D0220989A
S113E800BDE696BDE6E38E00407EE429D64758581F
S113E810DB475880303404ABE09747209F9B3EBCD5
S113E8201FFD9E6E6B27FD9E6E6B28008ED3C78DD9
S113E8300CDC68DD50C69043BDE6ED8D037EE40339
S113E840CE01F18620D6542A02862DA7C0DF649714
S113E850548630D64F102700C64FC18022088EE858
S113E86027BDE53186F797458EE822BDE7072E0FD1
S113E8708EE81DBDE7072E0EBDE5D10A4520F1BD8A
S113E880E5E90C4520E2BDE41BBDE72FC601964532
S113E8908B0A2B09810B24054A1F8986024A4A9751
S113E8A047D7452E0DDE64862EA7C05D270486302B
S113E8B0A7C08EE92CC6809653AB0397539652A9F2
S113E8C00297529651A90197519650A98497505C8A
S113E8D0565928E32403C00B50CB2F30041F9884CF
S113E8E07FA7C00A452604862EA7C053C4808CE99E
S113E8F05026C4A6C2813027FA812E2602335F86B1
S113E9002BD647271C2A03862D50A7428645A741AC
S113E910862F4CC00A24FBCB3AED436F452004A755
S113E920C46F418E01F1398000000000FA0A1F0013
S113E93000989680FFF0BDC0000186A0FFFFD8F0CC
S113E940000003E8FFFFFF9C0000000AFFFFFFFF39
S113E950964F27020354399F64BDE6968D058D08B2
S113E9608E00407EE5319F64BDE6919E64E680D7CB
S113E970559F648DEE9E6430059F64BDE4298E002E
S113E980450A5526EE39BDE6D42B1F27158D10BD3B
S113E990E6968D0E8E00408DCA8EE52CBDE4297E50
S113E9A0E7559EB19F509EB39F52BEE9D79F5DBE6F
S113E9B0E9D99F5FBDE537DC8AC3658BDDB3DD52E2
S113E9C0DC88C9B08905DDB1DD500F548680974FCE
S113E9D0961597637EE48340E64DABBDE6C68EEAAA
S113E9E020D661BDE5F0BDE6C68DB40F62965CD657
S113E9F04FBDE4238EEA25BDE420965434022A094F
S113EA00BDE41B96542B05030ABDE9508EEA25BDCF
S113EA10E42935024D2A03BDE9508EEA2A7EE957DE
S113EA2083490FDAA27F000000000584E61A2D1B3B
S113EA30862807FBF88799688901872335DFE186F3
S113EA40A55DE72883490FDAA2A154468F138F529C
S113EA504389CD8EEA86BDE4297EE9DBBDE6960FC7
S113EA600A8DF68E004ABDE69C8E0040BDE67B0F03
S113EA7054960A8D0C0D4F1027FA7E8E004A7EE5BF
S113EA80F634027EEA0981490FDAA2965434022A46
S113EA90028D24964F3402818125058EE52C8DDE6E
S113EAA08EEABBBDE9573502818125068EEA86BD13
S113EAB0E42035024D2A037EE950390B76B383BD39
S113EAC0D3791EF4A6F57B83FCB0107C0C1F67CAB7
S113EAD07CDE53CBC17D1464704C7DB7EA517A7DE2
S113EAE06330887E7E9244993A7E4CCC91C77FAA4B
S113EAF0AAAA138100000000037F5E56CB7980131D
S113EB009B0B6480763893168238AA3B20803504A8
S113EB10F334813504F334808000000080317217AF
S113EB20F8BDE6D4102FF0C98EEB0D964F808034DB
S113EB30028680974FBDE4298EEB12BDE5F68EE583
S113EB402CBDE4208EEAF8BDE9578EEB17BDE4290D
S113EB503504BDE8008EEB1C7EE531BDE6C68EE9CA
S113EB6027BDE67B27674D26037EE4A18E004ABDC0
S113EB70E69C5F96612A10BDE7558E004A9661BDFA
S113EB80E707260343D601BDE6B33404BDEB218E6B
S113EB90004ABDE5318D363502461025FDB2398176
S113EBA038AA3B29077134583E5674167EB31B7736
S113EBB02FEEE3857A1D841C2A7C6359580A7E75DE
S113EBC0FDE7C6803172181081000000008EEB9FB3
S113EBD0BDE531BDE696964F818825037EE5C3BD2C
S113EBE0E75596018B8127F44A34028E0040BDE438
S113EBF0208EEBA4BDE9660F623502BDE5AF39BDD9
S113EC00E6D42B037EE75503548DF97EE950BDF01D
S113EC103C326286019798BDD4C51025EA84BDE2D2
S113EC20591F208300F5D797DC2BBDE833BDE413CF
S113EC308E00F4D69826255FBDED62BDF507250B41
S113EC4080303402860A3DEBE020EDC001C9018129
S113EC50412605BDE3C320BB814C260B8D310F98A3
S113EC60BDE3C320C33262810D260D8D22BDE3C3F3
S113EC708E00F49F837ED46E814527F18151260650
S113EC80BDE3C37ED4458D0220AD812026108CC601
S113EC90F9A6842708BDD01730015A26F4398144D7
S113ECA026486D8427F78D045A26F7390A97311FB1
S113ECB03121A621A7A426F8398149271381582791
S113ECC00D8148265C6F841F108300F5D7978DBF94
S113ECD0BDED62810D278E811B2725810826228C9C
S113ECE000F427EC8D458DC420E6814326CB6D844A
S113ECF0270EBDED62250220F5A7808D375A26EE3A
S113ED0039D697C1F9260220C734106D8026FCE657
S113ED1082E701ACE426F83262A7808D170C9720B5
S113ED20AF810826128D045A26FB398C00F427D0B3
S113ED30301F86087ED017814B2705805327013961
S113ED4034028D1E3402A68427166D6126068DE4D6
S113ED5030012003BDECACA684A1E426E95A26E6E2
S113ED6035A0BDD000817F24F9815F2602861B81F6
S113ED700D270E811B270A81082706812025E31A07
S113ED800139864F978C398600D6791D7EDC9BBD70
S113ED90DA16DC1F3406BDDAFEBDDA1335061E10A2
S113EDA09C1F26517EDC9B9D7CBDDA16BDDAFE34A9
S113EDB010EC02109321230493272312E684BDDD73
S113EDC0143410AE62BDDDEA3550AF423440BDDECE
S113EDD0DF34045D271FC6FF81292703BDDEDF342E
S113EDE004BDDA13C6AEBDDA1B8D2E1F13AE62A6A8
S113EDF084A06124037EDBF14CA1E42402A7E4A6F1
S113EE00611E89AE025A3A4D270DA1E42302A6E4FD
S113EE101F891E31BDD1D13596BDD9027EDDFBBD22
S113EE20DA16BDDEB23404BDDA19BDD902BDDA1377
S113EE3096062605BDDEB52003BDDE4B3404E6612F
S113EE40BDDCB635062705A7805A26FB7EDE42BD0B
S113EE50DA16BDD902C601340496062610BDDEB505
S113EE60E7E42791BDDA19BDD902BDD8F29E523428
S113EE7010BDDA19BDEE193414BDDA13AE63BDDE6C
S113EE80003404E1662523A661271CE6665A3A315C
S113EE9084EE62E661A6E4A0664CA161250CA6801E
S113EEA0A1C0260C5A26F7E666215F32677EDC9AFB
S113EEB06C66302120D98126265C32620F520F53B2
S113EEC08E00529D7C814F2712814827239D8220EA
S113EED00C81381022EB4CC6038D2A9D7C25F20F41
S113EEE0500F510F060F630F54C6A0D74F7EE48313
S113EEF09D7C250BBDDB4925E6814724E28007C6BE
S113EF00048D0220EB680169841025F5EC5A26F57E
S113EF108030AB01A7013935400F069E839D7C816B
S113EF2026279981B0275E81FF26089D7C81831066
S113EF302700AB9F836EC49E68300126D9C6167E17
S113EF40D426AE9F00838CFF83102700748D238DFD
S113EF50E6BDDA16C680D708BDDAFE8D25BDDA1304
S113EF60C6AEBDDA1B9E4BDC83ED84DC39ED027E3C
S113EF70D6B0C6B0BDDA1BC680D7088A80BDDB0315
S113EF809F4B7ED8EF8DEB3410BDDA0E8DF43540F7
S113EF90C632AE4227A9109E83EEC4DF83A6043492
S113EFA002EC84EE023476BDE69CBDD8ED3576EDF8
S113EFB084EF023502A7049D821026EA66109F831F
S113EFC0399D7C8D0934108D2D3540AFC4395F9D3A
S113EFD07C240680301F899D7C9E8D583A398DEEA5
S113EFE0AE843410BDDA0E8E004F96062707BDDDC1
S113EFF0FE9E52960639C6AEBDDA1B7EDEE41027AD
S113F000EBEFBDD737BDD4C59F939D82271081A751
S113F010263B9D7C27048D24200486FF972BDE93BA
S113F0208CEEC4ECC42706EC42932B23F49E938D00
S113F03015BDD4E59E93BDD4B57ED445BDD7377EEA
S113F040D1DAA6C0A78011931B26F79F1B39BDEF09
S113F050379D7C8122260BBDD9F0C63BBDDA1BBD92
S113F060E406327EBDD7EC3262BDDAFE9F3BBDD8EA
S113F070F28E00F34FBDDCC37ED774BDD7379E2B11
S113F080399E919F2B7ED4C5BDD4EACC000ADD9570
S113F090DD8F5FDD919D8224068DE09F959D822703
S113F0A01BBDDA1924068DD39F919D82270EBDDAEC
S113F0B01924068DC69F8F2749BDD1DA8DC39F932E
S113F0C09E958DBF9C93253A8D1CBDF15CBDD4B338
S113F0D08DAF9F938D3A8D0F8D36BDF1F7BDD4EA78
S113F0E0BDD4B37ED445864F97989E93DC958D15F9
S113F0F00D982602ED02AE848D0BD38F250481FA80
S113F10025EE7EDBF13406EC8435062602326239C4
S113F1109E19301F30018DED30033001A68427F491
S113F1209F0F4A270C4A272A4A26EF8603A78020E6
S113F130E7EC016A0227014FE6036A0427015FED49
S113F14001DD2BBDD4C59E0F25E1DC476C80ED8429
S113F15020C66F84AE01AE029F4720EA9E192004A8
S113F1609E8330018D9F300230019F839D7C4D270B
S113F170EF2AF99E8381FF27EF81A227128184273A
S113F1800E818126E79D7C81A0270481A126DB9D39
S113F1907C25049D8220D79E833410BDD7379E835F
S113F1A0A682BDF50725F930011F10E061C00527CF
S113F1B020250A3384503085BDF04620149F479E95
S113F1C01B9F435030859F419F1BBDD3FE9E459F8F
S113F1D08335108601A784A702A704D62B2604C66C
S113F1E0016C02E701D62C2604C6016C04E7039DDA
S113F1F082812C279A209C9E19301F3001EC02DD5D
S113F20068BDF10530033001A68427EF4A271B802F
S113F2100226F334108EF254BDE403AEE4EC01BDD7
S113F220E833BDE82CBDE3C335103410EC01DD52E6
S113F230BDEEDFBDE8403540C6053001A684270594
S113F2405AA7C020F530C45D27BE31C433C5BDF014
S113F2504630A420B3554C2000BDDEE78E01F0C635
S113F2600434045F860408530952594A26F85D267B
S113F2700AA6E44A27058C01F0270CCB30C13923B8
S113F28002CB07E7806F8435045A26D532628E019B
S113F290EF7EDCBF860197995ABDF4359D82102715
S113F2A00093D793BDD902BDD8F29E529F4DD699F3
S113F2B0BDDE54BDE4069E52D699E0845A102B015B
S113F2C04FBDE41320F6D7939F0F86029799A68427
S113F2D0812527C4812026070C9930015A26EF9EE8
S113F2E00FD6938625BDF435BDD017202981B127CB
S113F2F001393262BDD904BDD8F2C63BBDDA1B9ECA
S113F300529F952006969727089E950F97E6842688
S113F310037EDBF1AE020F9A0F99A680812110279C
S113F320FF728123275B5A2616BDF435BDD0179D85
S113F3308226D296972603BDE3C39E957EDE008186
S113F3402B2609BDF4358608979A20CC812E274EAA
S113F35081251027FF70A184268B81242719812AF7
S113F36026F6969A8A20979AC1022511A60181242D
S113F370260B5A30010C99969A8A10979A30010CF0
S113F380990F980C995A2749A680812E271E81230C
S113F39027F1812C2621969A8A40979A20E5A68403
S113F3A081231026FF3F8601979830010C985A2735
S113F3B020A680812327F5815E2616A1842612A12A
S113F3C001260EA102260AC1042506C00430040C3D
S113F3D09A301F0C99969A850826180A995D271366
S113F3E0A684802D270681FE260986088A049A9A17
S113F3F0979A5A9D821027FF3CD793BDD8ED9699D2
S113F4009B9881111022E7E9BDF442301FBDE4034B
S113F4100F979D82270D9797813B2705BDDA192009
S113F420029D7C9E95E684D093AE023AD693102634
S113F430FEE47EF32F3402862B0D9A2703BDD017EA
S113F4403582CE01F2C620969A85082702C62B0D76
S113F450542A040F54C62DE7C0C630E7C0840110F7
S113F4602601078EE827BDE7072B15BDE840A680D7
S113F47026FCA682A7018C01F126F78625A78439EC
S113F480964F97472703BDF62A9647102B008140D5
S113F4909B998009BDF547BDF6C0BDF65F9647BD93
S113F4A0F6DE9647BDF6A696982602335F4ABDF56A
S113F4B047BDF5E24D2706C12A2702E7C06FC48E77
S113F4C001F130019F0F963A901090992738A68445
S113F4D0812027EE812A27EA4F3402A680812D2736
S113F4E0F8812B27F4812427F08130260EA6018D84
S113F4F01625083502A78226FA20C735024D26FBB9
S113F5009E0F8625A7823981302504803A80C6392A
S113F510969827014A9B472B014F34022A0A34024A
S113F520BDE5E935024C20F49647A0E097478B09E6
S113F5302B199699800990478D0DBDF6C0201D3476
S113F540028630A7C035024A2AF53996998DF8BD4E
S113F550F6AA86F790478DEF0F450F97BDF65F9695
S113F560982602DE399B4716FF43964F3402270341
S113F570BDF62A969827014A9B997F01F1D69AC431
S113F5800426037301F1BB01F1800934022A0A3411
S113F59002BDE5E935024C20F4A6E42B014F409B63
S113F5A0994CBB01F197450F97BDF65F3502BDF647
S113F5B0DE96982602335FE6E02709D647CB09D0CA
S113F5C099F001F1862B5D2A03862D50A7418645CB
S113F5D0A7C1862F4CC00A24FBCB3AEDC16FC47E71
S113F5E0F4B18E01F2E68434048620D69AC520351F
S113F5F0042708862AC12026021F893404A780E62E
S113F600842710C145270CC13027F2C12C27EEC135
S113F6102E26048630A782969A85102704C624E7EE
S113F62082840435042602E7823934404F9747D652
S113F6304FC18022118EE827BDE53196478009200D
S113F640ECBDE5E90C478EE822BDE7072EF38EE812
S113F6501DBDE7072E07BDE5D10A4720F135C034AB
S113F66040BDE41BBDE72F35408EE92CC6808D36A6
S113F6709653AB0397539652A90297529651A901F8
S113F68097519650A98497505C565928E32403C097
S113F6900B50CB2F30041F98847FA7C053C4808C99
S113F6A0E95026CA6FC40A452609DF39862EA7C049
S113F6B00F97390A97260886039797862CA7C0398F
S113F6C096478B0A97454C800324FC8B05979796A5
S113F6D09A8440260297973934028DCA35024A2B00
S113F6E00A34028630A7C0A6E026ED3981891027A6
S113F6F0F95C7EDA23B6E0128EF70AA6802A013975
S113F700B7E012A680B7E01220F109800900044492
S113F71003C105EA0B050F00FFFF004D4943524F9B
S113F720534F465420424153494320464F522048A8
S113F7304436333039205342432056312E332E2061
S113F7404255494C54204D41592032302C203230FE
S106F7503134004D
S113FFF0D04C009B009E00AA00A700A100A4D04CF6
S503025E9C
S9030000FC
