S01E00005B6C77746F6F6C7320342E31305D20524F4D62617369632E41534D13
S113DB008D0327FC39B6C012B6C01285012706B6AC
S113DB10C013847F394F398D243402810D270BB70C
S113DB20C0130C799679917825100F798D0F860D95
S113DB30B7C0138D08860AB7C0133502393402B64C
S113DB40C012B6C012850427F635023910CE01EE94
S113DB508610B7C0508602B7C040BDFEFF966E81E6
S113DB6055260A9E6FA684811226026E848613B7F8
S113DB70C0508E02186F83300126FA8E02176F8010
S113DB809F19A60243A702A10226063001630120C1
S113DB90F19F719F279F233089FF389F211F148E87
S113DBA0DBF5CE0076C612BDDCD6CE00A7C604BD1A
S113DBB0DCD6863997F0BDDFE28E00B59F8DCEE6C8
S113DBC0F6C60AEF815A26FBBDDB0527FB8612B792
S113DBD0C050BDDB0527FB8610B7C0508EDC2ABDC4
S113DBE0EC0D8EDBED9F6F8655976E200412BDDF22
S113DBF0FC7EDF4A3B10405000E6F60C8426020C03
S113DC0083B600007EDCE77EDCE67EDBF47EE6F6AF
S113DC10804FC7525932DD45DE521DDDE5DCF6008A
S113DC2000000000000000000000000D363830390C
S113DC3020455854454E4445442042415349430DE0
S113DC402843292031393832204259204D49435242
S113DC504F534F46540D0D0034169E76DC789F6A60
S113DC60D76C976D35960F738E00F4C601BDDB003B
S113DC70810826075A27EF301F20348115260A5AB7
S113DC8027E48608BDDB1720F681031A01270581E6
S113DC900D260D4F3401BDEBCD6F848E00F335811D
S113DCA0812025C9817B24C5C1FA24C1A7805CBD1C
S113DCB0DB1720B92705BDE9E99F7A6E9F007A7EBC
S113DCC0E0CB96732603BDDB050F73975310260C28
S113DCD06A97567EE947A680A7C05A26F939399D26
S113DCE08227FB7EE5283B813A240A812026020E06
S113DCF07C803080D039EEEBEF5FEF0400ADF19023
S113DD00F1E5E9FCE92DE7A9E9C2E94CE938F29526
S113DD10F25DF266F3D7F409F32BF591F365FA6338
S113DD20E957E974E97BDCC2E79AF599F659F629D3
S113DD3079EC3679EC2D7BED3D7BEE027FF36E5072
S113DD40E58146E580464FD247CF5245CDA7454CA5
S113DD5053C549C6444154C15052494ED44FCE498B
S113DD604E5055D4454EC44E4558D44449CD5245E1
S113DD7041C45255CE524553544F52C55245545541
S113DD8052CE53544FD0504F4BC5434F4ED44C49B1
S113DD9053D4434C4541D24E45D7455845C35452BC
S113DDA04FCE54524F46C64445CC4445C64C494ECA
S113DDB0C552454E55CD454449D4544142A854CF4B
S113DDC05355C2544845CE4E4FD4535445D04F4674
S113DDD0C6ABADAAAFDE414EC44FD2BEBDBC46CE2B
S113DDE05553494EC75347CE494ED44142D3555358
S113DDF0D2524EC45349CE504545CB4C45CE5354D4
S113DE0052A45641CC4153C3434852A44154CE4337
S113DE104FD35441CE4558D04649D84C4FC7504FA4
S113DE20D35351D2484558A44C454654A45249476B
S113DE304854A44D4944A4494E4B4559A44D45CD9D
S113DE405641525054D2494E5354D2535452494ECF
S113DE5047A4E010E15BE1B8E1B8E1B8E1E9E1B57C
S113DE60EB92E217E2C4E0E2E3A9E5FAE2FEE15054
S113DE70E0C4E195E0E6EA03E10BEA0AE11CDFE035
S113DE80DCB4F58CF58DF808F74CFEF6F892F4182E
S113DE904E46534E52474F4446434F564F4D554CB2
S113DEA0425344442F304944544D4F534C535354DC
S113DEB0434E4644414F444E494F464D4E4F4945CB
S113DEC0445355464E45204552524F520020494E28
S113DED020000D4F4B0D000D425245414B00306464
S113DEE0C6129F0FA68480802615AE019F119E3B0B
S113DEF027099C1127099E0F3A20E59E119F3B9EFE
S113DF000F4D398D17DE4133419E433001A68236D1
S113DF10029C4726F8DF45394F58D31FC3003A25E2
S113DF200810DF1710931725EEC60CBDDFFCBDEB00
S113DF30D1BDEC208EDE903A8D318D2F8EDEC5BDA5
S113DF40EC0D96684C2703BDF036BDEBD18EDED2C6
S113DF50BDEC0DBDDC66CEFFFFDF6825F69F839D1B
S113DF607C27F0250BBDEABF7EE099A6807EEC22DB
S113DF70BDE23C9E2B9FF1BDEABFD7038D4C251219
S113DF80DC47A384D31BDD1BEE843702A7809C1BD4
S113DF9026F896F3271CDC1BDD43DB038900DD41F7
S113DFA0BDDF03CE00EF3702A7809C4526F89E41D3
S113DFB09F1B8D368D02209B9E19EC8427213304F0
S113DFC0A6C026FCEF84AE8420F0DC2B9E19EE84E0
S113DFD0270910A3022306AE8420F31A019F4739B0
S113DFE026FB9E196F806F809F1B9E19BDE1909E3A
S113DFF0279F23BDE0C49E1B9F1D9F1F8E00C99FAA
S113E0000BAEE410DE216FE20F2D0F2E0F086E848D
S113E01086809708BDE25EBDDEDE326226049E0F76
S113E0203285C609BDDF18BDE1BDDC683416C6A063
S113E030BDE520BDE3F4BDE3F2D654CA7FD450D786
S113E04050108EE0487EE49B8EED36BDEE859D82B9
S113E05081A426059D7CBDE3F2BDEEDEBDE497DC24
S113E0603B3406868034021CAF8D609E839F2FA6AE
S113E070802707813A27227EE528A6819700277208
S113E080EC80DD689F83968C270F865BBDDB17963B
S113E09068BDF03D865DBDDB179D7C8D0220C827E1
S113E0A0294D102A01B881FF270F819E22C9BEDCA9
S113E0B018481F893A9D7C6E949D7C819710271483
S113E0C0F07EE5289E19301F9F3339BDDB05270AF2
S113E0D08103271281132703977339BDDB0527FBBF
S113E0E020EE9D8220021A0126319E839F2F060076
S113E0F032629E688CFFFF27069F299E2F9F2D8EDC
S113E100DED60D00102AFE427EDF3F260EC6209E7C
S113E1102D1027FE169F839E299F6839272CBDE664
S113E1209234069E279D82270CBDE51EBDE9E93089
S113E1301F9C7122181F10A3E125121F0383003AAC
S113E140250B931B2507DF219F277EDFEF7EDF2929
S113E1509D821027FE94BDDFEF20191F899D7CC18D
S113E160A02716C1A12645C603BDDF18DE839E681D
S113E17086A134528D037EE0679D82BDE23C8D40D2
S113E1803001DC2B10936822029E19BDDFCE2517C7
S113E190301F9F833926FD86FF973BBDDEDE1F14AB
S113E1A08121270BC6048CC60E7EDF2B7EE5283525
S113E1B0529F68DF838D068C8D069F8339C63A860D
S113E1C05FD7015F9E831F98D6019701A68427EC31
S113E1D03404A1E027E63001812227EA4C260230EC
S113E1E001818626E70C0420E3BDE3F29D82818150
S113E1F02705C6A2BDE520964F26130F048DB64D04
S113E20027BA9D7C818426F50A042AF19D7C9D828F
S113E2101025FF657EE09FBDE9B7C681BDE52034CA
S113E2200281A1270481A026830A53260535047E92
S113E230E15D9D7C8D06812C27EF35849E749F2B98
S113E240246180309701DC2B811822DB584958491E
S113E250D32B5849DB018900DD2B9D7C20E2BDE6F0
S113E260039F3BC6AEBDE52096063402BDE40735E8
S113E2700246BDE3F910270C2B9E52DC2110A302A9
S113E28024119C1B250DE684BDE7B99E4DBDE8EF26
S113E2908E00569F4DBDE921DE4D9E3B3726A78457
S113E2A010AF02393F5245444F0D007EDF2B9609D3
S113E2B027079E319F687EE5288EE2A3BDEC0D9E64
S113E2C02F9F8339C6169E68300127DF8D0139815F
S113E2D022260BBDE4F5C63BBDE520BDEC108E0047
S113E2E0F36F848D06C62CE7842016BDEC20BDECAC
S113E2F01DBDDC66240532647EE0EEC62E399E33F5
S113E300864F97099F35BDE6039F3B9E839F2B9EB7
S113E31035A684260996092651BDEC208DCD9F8310
S113E3209D7CD60627239E8397018122270E301FCA
S113E3304F9701BDDC58863A9701862C9702BDE7BA
S113E340CABDE4FABDE2792006BDEF83BDEEA49D0B
S113E350822706812C1026FF529E839F359E2B9F79
S113E360839D822721BDE51E209C9F83BDE1BD3096
S113E370014D260AC606EE812741EC81DD31A684D3
S113E380818626E620989E35D6091026FD3AA68475
S113E39027068EE3987EEC0D393F455854524120B0
S113E3A049474E4F5245440D0026049E742003BD38
S113E3B0E6039F3BBDDEDE2704C60020471F143062
S113E3C003BDEE85A66897549E3BBDEC33BDEEA419
S113E3D03069BDEF07E068270CAE6E9F68AEE810A9
S113E3E09F837EE06732E8129D82812C26F49D7C17
S113E3F08DBD8D131CFE7D1A010D0625032A998CF3
S113E4002B96C6187EDF2B8D6E4F8C34043402C6D7
S113E41001BDDF18BDE4D40F3F9D8280AD2513817B
S113E42003240F810149983F913F2564973F9D7CC8
S113E43020E9D63F26331024006B8B072467990606
S113E4401027047789FF340248ABE08EDD30308634
S113E4503502A18424558D9C34028D299E3D3502BC
S113E460261D4D1027006A204B0806598D098EE49D
S113E4707CD73F0F0620D99E837EE19064E5A0A15E
S113E48084243120D3EC0134068D08D63F16FF7B5B
S113E4907EE528D654A68435203404D64F9E50DE1B
S113E4A05234546EA49E74A6E0272681642703BDCB
S113E4B0E3F49F3D3504815A2719817D271554D7EC
S113E4C00A3552975C9F5DDF5F3504D761D854D716
S113E4D062D64F39BDF7210F069D7C24037EEF835E
S113E4E0BDE64E2450812E27F481A7274081A6271C
S113E4F0E38122260A9E83BDE7C49E649F833981FB
S113E500A3260D865ABDE40BBDE69943537EE7A0CE
S113E5104C272E8D06BDE407C6298CC6288CC62C34
S113E520E19F008326020E7CC6027EDF2B867DBD22
S113E530E40B7EF15ABDE6039F52960626957EEEC5
S113E540859D7C1F89589D7CC13823037EE5283432
S113E55004C12A251EC130241C8DC0A6E4BDE407D5
S113E5608DBCBDE3F73502DE523442BDE9B7350256
S113E57034068E8D9E3504BEDC1D3AAD947EE3F4E4
S113E580864F9703BDE699DD01BDEEBBBDE6990D4F
S113E5900326069401D40220049A01DA027EE7A03D
S113E5A0BDE3F9261096618A7F945D975D8E005CC9
S113E5B0BDEF0720360F060A3FBDE903D7569F5823
S113E5C09E5FBDE90596563404A0E0270786012422
S113E5D003D656409754DE585C5A2604D654200B72
S113E5E0A680A1C027F3C6FF240150CB0159D40A49
S113E5F02702C6FF7EEEEDBDE51EC6018D089D8295
S113E60026F5395F9D82D70597379D828D40102569
S113E610FF165FD7069D7C25048D33250A1F899D2F
S113E6207C25FC8D2924F8812426060306CB809DB5
S113E6307CD7389A088028102700750F089E1BDCA9
S113E640379C1D271210A381273E300520F38141FA
S113E6502504805B80A5398E0074EEE41183E538CF
S113E6602728DC1FDD43C30007DD419E1D9F47BDF6
S113E670DF039E419F1F9E459F1D9E47DC37ED8112
S113E6804F5FED84ED02A7049F39399080000000AC
S113E6909D7CBDE3F296542B5DBDE3F4964F8190CF
S113E6A025088EE68BBDEF07264CBDEF39DC5239C9
S113E6B0DC053406125F9E3734148DD435349F370D
S113E6C0DE5234605C9D82812C27EBD703BDE518B4
S113E6D03506DD059E1D9C1F2721DC3710A38427EA
S113E6E006EC02308B20EFC6129605260BD603E10A
S113E6F0042759C6108CC6087EDF2BCC0005DD64C8
S113E700DC37ED84D603E704BDDF189F41C60B4F09
S113E7100D0527053506C30001ED058D5DDD64306B
S113E720020A0326E89F0FD30F1025F7FC1F01BD33
S113E730DF1C830035DD1F4F301FA7059C0F26F813
S113E7409E41961F9341ED029605262DE604D703BC
S113E7504F5FDD643506DD5210A305243ADE6427DD
S113E760048D17D35230020A0326E7EDE3584958C3
S113E77049E3E1308B30059F393986109745EC0524
S113E780DD174F5F5849250F086509642404D31722
S113E79025050A4526EE397EE6F31F40931F214FD7
S113E7A00F06DD50C6907EEEF3BDE3F4CE01F0BD5E
S113E7B0F04D32628E01EF200B9F4D8D5C9F58D738
S113E7C05639301F86229701970230019F629F5865
S113E7D0C6FF5CA680270C91012704910226F381D1
S113E7E0222702301F9F64D756DE62118301F02274
S113E7F0078DC69E62BDE8F19E0B8C00F12605C60E
S113E8001E7EDF2B9656A700DC58ED0286FF970686
S113E8109F0D9F5230059F0B390F074F3406DC23A1
S113E820A3E0109321250ADD239E2330019F253583
S113E83084C61A030727CA8D04350420DE9E279F49
S113E840234F5FDD4B9E219F478E00C99C0B2704FD
S113E8508D3220F89E1B9C1D27048D2220F89F4199
S113E8609E419C1F2735EC02D341DD41A6012AF0CD
S113E870E60458CB053A9C4127E88D0820F8A60108
S113E88030022A14E6842710EC0210932322091084
S113E890934723049F4BDD473005399E4B27FB4F9D
S113E8A0E6845AD347DD439E239F41BDDF059E4B3B
S113E8B0DC45ED029E45301F7EE83FDC523406BD48
S113E8C0E4D4BDE3F735109F62E6849E52EB8424C2
S113E8D005C61C7EDF2BBDE7B99E62E6848D109EC3
S113E8E04D8D228D0C9E628D1CBDE7F87EE419AE21
S113E8F002DE255C2004A680A7C05A26F9DF25394C
S113E900BDE3F79E52E6848D182613AE07301F9C94
S113E9102326083404D323DD233504300139AE0221
S113E920399C0D26079F0B301B9F0D4F398D037E9D
S113E930E79F8DCC0F065D39BDE9BAC601BDE81964
S113E9409653BDE7BDA78432627EE7F88D0220DFCF
S113E9508DE0275EE684398D484FE1842303E68405
S113E9604F3406BDE7BB9E4D8D9B35043A3504BD3F
S113E970E8F120D58D2BA0844020DFC6FFD7539D1E
S113E9808281292705BDE51E8D2D8D1527245F4A1B
S113E990A18424CD1F89E08450D15323C4D65320AD
S113E9A0C0BDE518EEE4AE659F4DA664E66432672B
S113E9B01F357EE6F69D7CBDE3F2BDE6954D26F25D
S113E9C00E82BDE932102702E1DE839F833AA684DA
S113E9D034526F849D82BDEF833552A784DF83391F
S113E9E08D079F2BBDE51E20CEBDE3F296542BC2AE
S113E9F0964F819022BCBDEF399E52398DEEE6844C
S113EA007EE79F8DDB9E2BE784393401BDE23CBD5C
S113EA10DFCA9F66350127129D82271381A7260925
S113EA209D7C2706BDE23C270639CEFFFFDF2B3253
S113EA30629E66BDEBD1BDDCBFEC8426037EDF4A5B
S113EA409F66EC0210932B22F4BDF03DBDEC1D9E9D
S113EA50668D10AE9F0066CE00F4A6C027D5BDEC2F
S113EA602220F73004108E00F4A68027512B158144
S113EA703A260DE684C18427F0C18327EC8C8621D5
S113EA808D3020E5CEDC0B81FF2604A6803345843F
S113EA907F334A6DC427E7A0C42AF6ABC4EE414ACB
S113EAA02B066DC02AFC20F7A6C48D066DC02AF87B
S113EAB020B7108C01ED2406847FA7A06FA4399E93
S113EAC083CE00F30F430F44A68027210D43270F65
S113EAD0BDE64E241881302504813923100F43816B
S113EAE020270A9742812227380D442719A7C027D7
S113EAF006813A27CF20D16FC06FC01F308300F149
S113EB008E00F29F8339813F2604868720DF812788
S113EB102613CC3A83EDC10F42A68027D091422719
S113EB20CCA7C020F481302504813C25C0301F349B
S113EB30500F41CEDC0B0F42334AA6C4273110AE2E
S113EB4041AEE4E6A0E08027FAC18026383262357F
S113EB5040DA4296412606C1842606863AEDC12053
S113EB6094E7C0C18626020C44C18227AA2086CE1F
S113EB70DC10034126C03550A680A7C0BDE64E2553
S113EB80EC034320E80C424A27AE313FE6A02AFCBE
S113EB9020AF27398D0139BDFAF7273E819F2753CE
S113EBA0812C2737813B2760BDE407960634022673
S113EBB006BDF04ABDE7C28D573504BDDC585D265D
S113EBC0089D82812C27148D549D8226CF860D208A
S113EBD051BDDC5827F7966C26F339BDDC58270A5B
S113EBE0D66CD16B25068DE5201ED66CD06A24FC2C
S113EBF0502010BDE9B581291026F92CBDDC58D070
S113EC006C23058D185A26FB9D7C7EEB9ABDE7C4C8
S113EC10BDE9035C5A27C3A6808D0720F786208CA4
S113EC20863F7EDB178EF1312009BDEDA00354032E
S113EC30622003BDEDA05D102702808E005C1F8959
S113EC405D276CD04F2769250A974F966197548E9C
S113EC50004F50C1F82F594F6401BDED2BD6622AE5
S113EC600B63016302630363044389009763965350
S113EC70996097539652995F97529651995E97511E
S113EC809650995D97505D2A4425028D5D5F96509C
S113EC90262E9651975096529751965397529663B3
S113ECA097530F63CB08C1282DE44F974F975439DE
S113ECB08D6D5F20A85C08630953095209510950FE
S113ECC02AF3964F3404A0E0974F23DE8C250808DE
S113ECD06386009763200C0C4F27280650065106C4
S113ECE052065324048D0D27EE3903540350035167
S113ECF0035203539E5230019F5226069E50300108
S113ED009F5039C60A7EDF2B8E0012A6049763A695
S113ED1003A704A602A703A601A702965BA701CB3B
S113ED20082FE89663C008270C670166026603662D
S113ED3004465C26F43981000000008D6327608D51
S113ED407886009713971497159716D6538D22D665
S113ED5063D78BD6528D1AD663D78AD6518D12D6E5
S113ED6063D789D6508D0CD663D788BDEE7C7EECF4
S113ED708D2795439613562726241696169B60973F
S113ED80169615995F97159614995E97149613998C
S113ED905D46971306140615061606634F20D539EB
S113EDA0EC0197618A80DD5DD661D854D762EC03AB
S113EDB0DD5FA684975CD64F394D27169B4F464995
S113EDC028108B80974F270C96629754399654439A
S113EDD020023262102AFED27EED03BDEED0270D52
S113EDE08B0225F40F62BDEC3E0C4F27EB398420D7
S113EDF0000000BDEED08EEDEE5FD762BDEE858CD7
S113EE008D9E2773004F8DB10C4F27CC8E0013C6F7
S113EE1004D703C6019650915D26139651915E2640
S113EE200D9652915F2607965391602601431FA8C1
S113EE3059240AE7800A032B34272EC6011F8A258A
S113EE400E0860095F095E095D25E32BC820DF9683
S113EE506090539760965F9252975F965E92519737
S113EE605E965D9250975D20D8C64020D056565687
S113EE70D7638D087EEC8DC6147EDF2B9E139F50C6
S113EE809E159F52393402EC0197548A80DD500F4D
S113EE9063E684AE039F52D74F35828E0045200629
S113EEA08E00408C9E3B964FA78496548A7F945044
S113EEB0A7019651A702DE52EF0339966197549E3B
S113EEC05C9F4F0F63965E975196549E5F9F523995
S113EED0DC4FDD5C9E519F5E9E539F604D39D64F43
S113EEE02708D65459C6FF250150398DF1D7500F44
S113EEF051C68896508080D74FDC74DD5297639753
S113EF00547EEC890F5439E68427D3E601D8542B78
S113EF10D1D64FE184261DE601CA7FD450E10126F3
S113EF2013D651E102260DD652E1032607D653E04B
S113EF300426013956D85420ABD64F273DC0A0969D
S113EF40542A05035BBDECEC8E004FC1F82E06BDC0
S113EF50ED1F0F5B390F5B96544906507EED2BD69F
S113EF604FC1A0241D8DD2D7639654D75480808678
S113EF70A0974F965397017EEC89D750D751D7521B
S113EF80D753399E749F549F4F9F519F529F479FC1
S113EF90452564BDF6C0812D260403552004812B2C
S113EFA026049D7C2551812E2728814526289D7C79
S113EFB0256481A7270E812D270A81A62708812B86
S113EFC02704200603489D7C254C0D48270800474C
S113EFD02004034626CC96479045974727122A09D2
S113EFE0BDEDF30C4726F92007BDEDDB0A4726F9F2
S113EFF096552A8E7EF15AD645D046D7453402BD61
S113F000EDDB3504C0308D022098BDEEA0BDEEEDE1
S113F0108E00407EEC33D6475858DB475880303456
S113F02004ABE09747209F9B3EBC1FFD9E6E6B2761
S113F030FD9E6E6B28008EDECC8D0CDC68DD50C628
S113F0409043BDEEF78D037EEC0DCE01F18620D604
S113F050542A02862DA7C0DF6497548630D64F10F9
S113F0602700C64FC18022088EF031BDED3B86F7E4
S113F07097458EF02CBDEF112E0F8EF027BDEF11AA
S113F0802E0EBDEDDB0A4520F1BDEDF30C4520E26B
S113F090BDEC25BDEF39C60196458B0A2B09810BC2
S113F0A024054A1F8986024A4A9747D7452E0DDE12
S113F0B064862EA7C05D27048630A7C08EF136C6AD
S113F0C0809653AB0397539652A90297529651A92F
S113F0D00197519650A98497505C565928E324030C
S113F0E0C00B50CB2F30041F98847FA7C00A45263D
S113F0F004862EA7C053C4808CF15A26C4A6C281AC
S113F1003027FA812E2602335F862BD647271C2A06
S113F11003862D50A7428645A741862F4CC00A245A
S113F120FBCB3AED436F452004A7C46F418E01F138
S113F130398000000000FA0A1F0000989680FFF052
S113F140BDC0000186A0FFFFD8F0000003E8FFFF68
S113F150FF9C0000000AFFFFFFFF964F27020354A5
S113F160399F64BDEEA08D058D088E00407EED3B79
S113F1709F64BDEE9B9E64E680D7559F648DEE9E92
S113F1806430059F64BDEC338E00450A5526EE3984
S113F190BDEEDE2B1F27158D10BDEEA08D0E8E004B
S113F1A0408DCA8EED36BDEC337EEF5F9EB19F502D
S113F1B09EB39F52BEF1E19F5DBEF1E39F5FBDED43
S113F1C041DC8AC3658BDDB3DD52DC88C9B08905B7
S113F1D0DDB1DD500F548680974F961597637EEC12
S113F1E08D40E64DABBDEED08EF22AD661BDEDFA70
S113F1F0BDEED08DB40F62965CD64FBDEC2D8EF271
S113F2002FBDEC2A965434022A09BDEC2596542BC2
S113F21005030ABDF15A8EF22FBDEC3335024D2A97
S113F22003BDF15A8EF2347EF16183490FDAA27F75
S113F230000000000584E61A2D1B862807FBF887CA
S113F24099688901872335DFE186A55DE72883492D
S113F2500FDAA2A154468F138F524389CD8EF290B8
S113F260BDEC337EF1E5BDEEA00F0A8DF68E004AAB
S113F270BDEEA68E0040BDEE850F54960A8D0C0D92
S113F2804F1027FA7E8E004A7EEE0034027EF2137F
S113F29081490FDAA2965434022A028D24964F34FF
S113F2A002818125058EED368DDE8EF2C5BDF161BC
S113F2B03502818125068EF290BDEC2A35024D2A55
S113F2C0037EF15A390B76B383BDD3791EF4A6F5C8
S113F2D07B83FCB0107C0C1F67CA7CDE53CBC17DE2
S113F2E01464704C7DB7EA517A7D6330887E7E92D7
S113F2F044993A7E4CCC91C77FAAAAAA13810000F4
S113F3000000037F5E56CB7980139B0B64807638B4
S113F31093168238AA3B20803504F334813504F3F4
S113F32034808000000080317217F8BDEEDE102FAB
S113F330F3C48EF317964F808034028680974FBDB6
S113F340EC338EF31CBDEE008EED36BDEC2A8EF34D
S113F35002BDF1618EF321BDEC333504BDF00A8E9C
S113F360F3267EED3BBDEED08EF131BDEE852767F1
S113F3704D26037EECAB8E004ABDEEA65F96612A55
S113F38010BDEF5F8E004A9661BDEF11260343D690
S113F39001BDEEBD3404BDF32B8E004ABDED3B8DA3
S113F3A0363502461025FDB2398138AA3B2907714A
S113F3B034583E5674167EB31B772FEEE3857A1DC0
S113F3C0841C2A7C6359580A7E75FDE7C680317215
S113F3D0181081000000008EF3A9BDED3BBDEEA026
S113F3E0964F818825037EEDCDBDEF5F96018B811D
S113F3F027F44A34028E0040BDEC2A8EF3AEBDF1F0
S113F400700F623502BDEDB939BDEEDE2B037EEF20
S113F4105F03548DF97EF15ABDF846326286019736
S113F42098BDDFCA1025ED7FBDEA631F208300F578
S113F430D797DC2BBDF03DBDEC1D8E00F4D698268D
S113F440255FBDF56CBDFD11250B80303402860AA5
S113F4503DEBE020EDC001C90181412605BDEBCDA6
S113F46020BB814C260B8D310F98BDEBCD20C332D0
S113F47062810D260D8D22BDEBCD8E00F49F837E1F
S113F480DF73814527F181512606BDEBCD7EDF4A2E
S113F4908D0220AD812026108CC6F9A6842708BDD4
S113F4A0DB1730015A26F439814426486D8427F746
S113F4B08D045A26F7390A97311F3121A621A7A4B2
S113F4C026F839814927138158270D8148265C6F16
S113F4D0841F108300F5D7978DBFBDF56C810D2770
S113F4E08E811B2725810826228C00F427EC8D456C
S113F4F08DC420E6814326CB6D84270EBDF56C2593
S113F5000220F5A7808D375A26EE39D697C1F92601
S113F5100220C734106D8026FCE682E701ACE426A5
S113F520F83262A7808D170C9720AF810826128DC0
S113F530045A26FB398C00F427D0301F86087EDB62
S113F54017814B2705805327013934028D1E34025D
S113F550A68427166D6126068DE430012003BDF4D0
S113F560B6A684A1E426E95A26E635A0BDDB0081CF
S113F5707F24F9815F2602861B810D270E811B27BC
S113F5800A81082706812025E31A0139864F978CC2
S113F590398600D6791D7EE7A0BDE51BDC1F340645
S113F5A0BDE603BDE51835061E109C1F26517EE7F7
S113F5B0A09D7CBDE51BBDE6033410EC0210932135
S113F5C0230493272312E684BDE8193410AE62BDE8
S113F5D0E8EF3550AF423440BDE9E434045D271F01
S113F5E0C6FF81292703BDE9E43404BDE518C6AE8E
S113F5F0BDE5208D2E1F13AE62A684A06124037E78
S113F600E6F64CA1E42402A7E4A6611E89AE025AE0
S113F6103A4D270DA1E42302A6E41F891E31BDDC67
S113F620D63596BDE4077EE900BDE51BBDE9B734D8
S113F63004BDE51EBDE407BDE51896062605BDE933
S113F640BA2003BDE9503404E661BDE7BB350627A3
S113F65005A7805A26FB7EE947BDE51BBDE407C626
S113F66001340496062610BDE9BAE7E42791BDE506
S113F6701EBDE407BDE3F79E523410BDE51EBDF682
S113F680233414BDE518AE63BDE9053404E16625F1
S113F69023A661271CE6665A3A3184EE62E661A627
S113F6A0E4A0664CA161250CA680A1C0260C5A26B4
S113F6B0F7E666215F32677EE79F6C66302120D9CA
S113F6C08126265C32620F520F538E00529D7C813C
S113F6D04F2712814827239D82200C81381022EE67
S113F6E047C6038D2A9D7C25F20F500F510F060F3C
S113F6F0630F54C6A0D74F7EEC8D9D7C250BBDE6D1
S113F7004E25E6814724E28007C6048D0220EB687B
S113F7100169841025F5EC5A26F58030AB01A70168
S113F7203935400F069E839D7C8126279981B02719
S113F7305E81FF26089D7C8183102700AB9F836E2A
S113F740C49E68300126D9C6167EDF2BAE9F008387
S113F7508CFF83102700748D238DE6BDE51BC680C6
S113F760D708BDE6038D25BDE518C6AEBDE5209ED0
S113F7704BDC83ED84DC39ED027EE1B5C6B0BDE53A
S113F78020C680D7088A80BDE6089F4B7EE3F48DAF
S113F790EB3410BDE5138DF43540C632AE4227A9D3
S113F7A0109E83EEC4DF83A6043402EC84EE02349C
S113F7B076BDEEA6BDE3F23576ED84EF023502A701
S113F7C0049D821026ED61109F83399D7C8D093440
S113F7D0108D2D3540AFC4395F9D7C240680301FC9
S113F7E0899D7C9E8D583A398DEEAE843410BDE5EA
S113F7F0138E004F96062707BDE9039E52960639DD
S113F800C6AEBDE5207EE9E91027EEEABDE23CBDC7
S113F810DFCA9F939D82271081A7263B9D7C2704E6
S113F8208D24200486FF972BDE938CEEC4ECC42732
S113F83006EC42932B23F49E938D15BDDFEA9E9331
S113F840BDDFBA7EDF4ABDE23C7EDCDFA6C0A78016
S113F85011931B26F79F1B39BDF7419D7C812226FE
S113F8600BBDE4F5C63BBDE520BDEC10327EBDE228
S113F870F13262BDE6039F3BBDE3F78E00F34FBD5B
S113F880E7C87EE279BDE23C9E2B399E919F2B7E98
S113F890DFCABDDFEFCC000ADD95DD8F5FDD919D12
S113F8A08224068DE09F959D82271BBDE51E2406BC
S113F8B08DD39F919D82270EBDE51E24068DC69F84
S113F8C08F2749BDDCDF8DC39F939E958DBF9C938D
S113F8D0253A8D1CBDF966BDDFB88DAF9F938D3A77
S113F8E08D0F8D36BDFA01BDDFEFBDDFB87EDF4A77
S113F8F0864F97989E93DC958D150D982602ED0200
S113F900AE848D0BD38F250481FA25EE7EE6F63482
S113F91006EC84350626023262399E19301F300106
S113F9208DED30033001A68427F49F0F4A270C4A3B
S113F930272A4A26EF8603A78020E7EC016A0227DC
S113F940014FE6036A0427015FED01DD2BBDDFCA29
S113F9509E0F25E1DC476C80ED8420C66F84AE01E8
S113F960AE029F4720EA9E1920049E8330018D9F9A
S113F970300230019F839D7C4D27EF2AF99E8381BD
S113F980FF27EF81A227128184270E818126E79D1C
S113F9907C81A0270481A126DB9D7C25049D8220F7
S113F9A0D79E833410BDE23C9E83A682BDFD112503
S113F9B0F930011F10E061C0052720250A33845067
S113F9C03085BDF85020149F479E1B9F43503085BF
S113F9D09F419F1BBDDF039E459F8335108601A772
S113F9E084A702A704D62B2604C6016C02E701D61D
S113F9F02C2604C6016C04E7039D82812C279A20DF
S113FA009C9E19301F3001EC02DD68BDF90F3003F4
S113FA103001A68427EF4A271B800226F334108E78
S113FA20FA5EBDEC0DAEE4EC01BDF03DBDF036BDBB
S113FA30EBCD35103410EC01DD52BDF6E9BDF04AD2
S113FA403540C6053001A68427055AA7C020F530E5
S113FA50C45D27BE31C433C5BDF85030A420B355AE
S113FA604C2000BDE9EC8E01F0C60434045F86042A
S113FA7008530952594A26F85D260AA6E44A27057E
S113FA808C01F0270CCB30C1392302CB07E7806F00
S113FA908435045A26D532628E01EF7EE7C486018E
S113FAA097995ABDFC3F9D8210270093D793BDE4DC
S113FAB007BDE3F79E529F4DD699BDE959BDEC10A1
S113FAC09E52D699E0845A102B014FBDEC1D20F6AE
S113FAD0D7939F0F86029799A684812527C48120F6
S113FAE026070C9930015A26EF9E0FD6938625BD22
S113FAF0FC3FBDDB17202981B12701393262BDE407
S113FB0009BDE3F7C63BBDE5209E529F95200696AE
S113FB109727089E950F97E68426037EE6F6AE02A5
S113FB200F9A0F99A68081211027FF728123275BEA
S113FB305A2616BDFC3FBDDB179D8226D29697261A
S113FB4003BDEBCD9E957EE905812B2609BDFC3FC7
S113FB508608979A20CC812E274E81251027FF7086
S113FB60A184268B81242719812A26F6969A8A2035
S113FB70979AC1022511A6018124260B5A30010C43
S113FB8099969A8A10979A30010C990F980C995A61
S113FB902749A680812E271E812327F1812C262127
S113FBA0969A8A40979A20E5A68481231026FF3FDF
S113FBB08601979830010C985A2720A68081232724
S113FBC0F5815E2616A1842612A101260EA1022625
S113FBD00AC1042506C00430040C9A301F0C9996FF
S113FBE09A850826180A995D2713A684802D27066E
S113FBF081FE260986088A049A9A979A5A9D821049
S113FC0027FF3CD793BDE3F296999B98811110226C
S113FC10EAE4BDFC4C301FBDEC0D0F979D82270D0F
S113FC209797813B2705BDE51E20029D7C9E95E6A6
S113FC3084D093AE023AD6931026FEE47EFB393488
S113FC4002862B0D9A2703BDDB173582CE01F2C63F
S113FC5020969A85082702C62B0D542A040F54C6F1
S113FC602DE7C0C630E7C08401102601078EF031AD
S113FC70BDEF112B15BDF04AA68026FCA682A70174
S113FC808C01F126F78625A78439964F97472703D9
S113FC90BDFE349647102B0081409B998009BDFD21
S113FCA051BDFECABDFE699647BDFEE89647BDFE3E
S113FCB0B096982602335F4ABDFD51BDFDEC4D2739
S113FCC006C12A2702E7C06FC48E01F130019F0FDD
S113FCD0963A901090992738A684812027EE812A9D
S113FCE027EA4F3402A680812D27F8812B27F4813F
S113FCF02427F08130260EA6018D1625083502A78B
S113FD008226FA20C735024D26FB9E0F8625A78240
S113FD103981302504803A80C639969827014A9B58
S113FD20472B014F34022A0A3402BDEDF335024C4D
S113FD3020F49647A0E097478B092B1996998009E0
S113FD4090478D0DBDFECA201D34028630A7C035F4
S113FD50024A2AF53996998DF8BDFEB486F7904784
S113FD608DEF0F450F97BDFE6996982602DE399BED
S113FD704716FF43964F34022703BDFE3496982757
S113FD80014A9B997F01F1D69AC40426037301F1B9
S113FD90BB01F1800934022A0A3402BDEDF33502B5
S113FDA04C20F4A6E42B014F409B994CBB01F197E6
S113FDB0450F97BDFE693502BDFEE89698260233CD
S113FDC05FE6E02709D647CB09D099F001F1862BED
S113FDD05D2A03862D50A7418645A7C1862F4CC0B6
S113FDE00A24FBCB3AEDC16FC47EFCBB8E01F2E664
S113FDF08434048620D69AC52035042708862AC16F
S113FE002026021F893404A780E6842710C14527D1
S113FE100CC13027F2C12C27EEC12E26048630A750
S113FE2082969A85102704C624E782840435042622
S113FE3002E7823934404F9747D64FC18022118E52
S113FE40F031BDED3B9647800920ECBDEDF30C4746
S113FE508EF02CBDEF112EF38EF027BDEF112E077F
S113FE60BDEDDB0A4720F135C03440BDEC25BDEFC4
S113FE703935408EF136C6808D369653AB03975391
S113FE809652A90297529651A90197519650A98466
S113FE9097505C565928E32403C00B50CB2F3004F1
S113FEA01F98847FA7C053C4808CF15A26CA6FC49C
S113FEB00A452609DF39862EA7C00F97390A9726E7
S113FEC00886039797862CA7C03996478B0A9745CF
S113FED04C800324FC8B059797969A8440260297BE
S113FEE0973934028DCA35024A2B0A34028630A768
S113FEF0C0A6E026ED3981891027F95C7EE528B695
S113FF00C0128EFF14A6802A0139B7C012A680B78A
S113FF10C01220F109800900044403C105EA0B055D
S113FF200F00FFFF004D4943524F534F46542042A8
S113FF304153494320464F522048443633303920F8
S113FF405342432E204255494C5420415052494C6F
S10DFF502032322C2032303134000C
S113FFF0DB4C009B009E00AA00A700A100A4DB4CE0
S5030247B3
S9030000FC
